{
  "_format": "hh-sol-artifact-1",
  "contractName": "NFTMintDN404",
  "sourceName": "contracts/Token.sol",
  "abi": [
    {
      "inputs": [
        {
          "internalType": "string",
          "name": "name_",
          "type": "string"
        },
        {
          "internalType": "string",
          "name": "symbol_",
          "type": "string"
        },
        {
          "internalType": "uint256",
          "name": "_MAX_SUPPLY",
          "type": "uint256"
        },
        {
          "internalType": "uint120",
          "name": "publicPrice_",
          "type": "uint120"
        },
        {
          "internalType": "uint96",
          "name": "initialTokenSupply",
          "type": "uint96"
        },
        {
          "internalType": "address",
          "name": "initialSupplyOwner",
          "type": "address"
        }
      ],
      "stateMutability": "nonpayable",
      "type": "constructor"
    },
    {
      "inputs": [],
      "name": "AlreadyInitialized",
      "type": "error"
    },
    {
      "inputs": [],
      "name": "ApprovalCallerNotOwnerNorApproved",
      "type": "error"
    },
    {
      "inputs": [],
      "name": "DNAlreadyInitialized",
      "type": "error"
    },
    {
      "inputs": [],
      "name": "ECDSAInvalidSignature",
      "type": "error"
    },
    {
      "inputs": [
        {
          "internalType": "uint256",
          "name": "length",
          "type": "uint256"
        }
      ],
      "name": "ECDSAInvalidSignatureLength",
      "type": "error"
    },
    {
      "inputs": [
        {
          "internalType": "bytes32",
          "name": "s",
          "type": "bytes32"
        }
      ],
      "name": "ECDSAInvalidSignatureS",
      "type": "error"
    },
    {
      "inputs": [
        {
          "internalType": "uint256",
          "name": "deadline",
          "type": "uint256"
        }
      ],
      "name": "ERC2612ExpiredSignature",
      "type": "error"
    },
    {
      "inputs": [
        {
          "internalType": "address",
          "name": "signer",
          "type": "address"
        },
        {
          "internalType": "address",
          "name": "owner",
          "type": "address"
        }
      ],
      "name": "ERC2612InvalidSigner",
      "type": "error"
    },
    {
      "inputs": [],
      "name": "ExceedsMaxMint",
      "type": "error"
    },
    {
      "inputs": [],
      "name": "InsufficientAllowance",
      "type": "error"
    },
    {
      "inputs": [],
      "name": "InsufficientBalance",
      "type": "error"
    },
    {
      "inputs": [
        {
          "internalType": "address",
          "name": "account",
          "type": "address"
        },
        {
          "internalType": "uint256",
          "name": "currentNonce",
          "type": "uint256"
        }
      ],
      "name": "InvalidAccountNonce",
      "type": "error"
    },
    {
      "inputs": [],
      "name": "InvalidPrice",
      "type": "error"
    },
    {
      "inputs": [],
      "name": "InvalidProof",
      "type": "error"
    },
    {
      "inputs": [],
      "name": "InvalidShortString",
      "type": "error"
    },
    {
      "inputs": [],
      "name": "LinkMirrorContractFailed",
      "type": "error"
    },
    {
      "inputs": [],
      "name": "MirrorAddressIsZero",
      "type": "error"
    },
    {
      "inputs": [],
      "name": "NewOwnerIsZeroAddress",
      "type": "error"
    },
    {
      "inputs": [],
      "name": "NoHandoverRequest",
      "type": "error"
    },
    {
      "inputs": [],
      "name": "NotLive",
      "type": "error"
    },
    {
      "inputs": [],
      "name": "SenderNotMirror",
      "type": "error"
    },
    {
      "inputs": [
        {
          "internalType": "string",
          "name": "str",
          "type": "string"
        }
      ],
      "name": "StringTooLong",
      "type": "error"
    },
    {
      "inputs": [],
      "name": "TokenDoesNotExist",
      "type": "error"
    },
    {
      "inputs": [],
      "name": "TotalSupplyOverflow",
      "type": "error"
    },
    {
      "inputs": [],
      "name": "TotalSupplyReached",
      "type": "error"
    },
    {
      "inputs": [],
      "name": "TransferCallerNotOwnerNorApproved",
      "type": "error"
    },
    {
      "inputs": [],
      "name": "TransferFromIncorrectOwner",
      "type": "error"
    },
    {
      "inputs": [],
      "name": "TransferToZeroAddress",
      "type": "error"
    },
    {
      "inputs": [],
      "name": "Unauthorized",
      "type": "error"
    },
    {
      "anonymous": false,
      "inputs": [
        {
          "indexed": true,
          "internalType": "address",
          "name": "owner",
          "type": "address"
        },
        {
          "indexed": true,
          "internalType": "address",
          "name": "spender",
          "type": "address"
        },
        {
          "indexed": false,
          "internalType": "uint256",
          "name": "amount",
          "type": "uint256"
        }
      ],
      "name": "Approval",
      "type": "event"
    },
    {
      "anonymous": false,
      "inputs": [],
      "name": "EIP712DomainChanged",
      "type": "event"
    },
    {
      "anonymous": false,
      "inputs": [
        {
          "indexed": true,
          "internalType": "address",
          "name": "pendingOwner",
          "type": "address"
        }
      ],
      "name": "OwnershipHandoverCanceled",
      "type": "event"
    },
    {
      "anonymous": false,
      "inputs": [
        {
          "indexed": true,
          "internalType": "address",
          "name": "pendingOwner",
          "type": "address"
        }
      ],
      "name": "OwnershipHandoverRequested",
      "type": "event"
    },
    {
      "anonymous": false,
      "inputs": [
        {
          "indexed": true,
          "internalType": "address",
          "name": "oldOwner",
          "type": "address"
        },
        {
          "indexed": true,
          "internalType": "address",
          "name": "newOwner",
          "type": "address"
        }
      ],
      "name": "OwnershipTransferred",
      "type": "event"
    },
    {
      "anonymous": false,
      "inputs": [
        {
          "indexed": true,
          "internalType": "address",
          "name": "target",
          "type": "address"
        },
        {
          "indexed": false,
          "internalType": "bool",
          "name": "status",
          "type": "bool"
        }
      ],
      "name": "SkipNFTSet",
      "type": "event"
    },
    {
      "anonymous": false,
      "inputs": [
        {
          "indexed": true,
          "internalType": "address",
          "name": "from",
          "type": "address"
        },
        {
          "indexed": true,
          "internalType": "address",
          "name": "to",
          "type": "address"
        },
        {
          "indexed": false,
          "internalType": "uint256",
          "name": "amount",
          "type": "uint256"
        }
      ],
      "name": "Transfer",
      "type": "event"
    },
    {
      "stateMutability": "payable",
      "type": "fallback"
    },
    {
      "inputs": [],
      "name": "DOMAIN_SEPARATOR",
      "outputs": [
        {
          "internalType": "bytes32",
          "name": "",
          "type": "bytes32"
        }
      ],
      "stateMutability": "view",
      "type": "function"
    },
    {
      "inputs": [],
      "name": "MAX_SUPPLY",
      "outputs": [
        {
          "internalType": "uint256",
          "name": "",
          "type": "uint256"
        }
      ],
      "stateMutability": "view",
      "type": "function"
    },
    {
      "inputs": [
        {
          "internalType": "address",
          "name": "owner",
          "type": "address"
        },
        {
          "internalType": "address",
          "name": "spender",
          "type": "address"
        }
      ],
      "name": "allowance",
      "outputs": [
        {
          "internalType": "uint256",
          "name": "",
          "type": "uint256"
        }
      ],
      "stateMutability": "view",
      "type": "function"
    },
    {
      "inputs": [
        {
          "internalType": "uint256",
          "name": "amount",
          "type": "uint256"
        },
        {
          "internalType": "bytes32[]",
          "name": "proof",
          "type": "bytes32[]"
        }
      ],
      "name": "allowlistMint",
      "outputs": [],
      "stateMutability": "payable",
      "type": "function"
    },
    {
      "inputs": [],
      "name": "allowlistPrice",
      "outputs": [
        {
          "internalType": "uint120",
          "name": "",
          "type": "uint120"
        }
      ],
      "stateMutability": "view",
      "type": "function"
    },
    {
      "inputs": [
        {
          "internalType": "address",
          "name": "spender",
          "type": "address"
        },
        {
          "internalType": "uint256",
          "name": "amount",
          "type": "uint256"
        }
      ],
      "name": "approve",
      "outputs": [
        {
          "internalType": "bool",
          "name": "",
          "type": "bool"
        }
      ],
      "stateMutability": "nonpayable",
      "type": "function"
    },
    {
      "inputs": [
        {
          "internalType": "address",
          "name": "owner",
          "type": "address"
        }
      ],
      "name": "balanceOf",
      "outputs": [
        {
          "internalType": "uint256",
          "name": "",
          "type": "uint256"
        }
      ],
      "stateMutability": "view",
      "type": "function"
    },
    {
      "inputs": [],
      "name": "cancelOwnershipHandover",
      "outputs": [],
      "stateMutability": "payable",
      "type": "function"
    },
    {
      "inputs": [
        {
          "internalType": "address",
          "name": "pendingOwner",
          "type": "address"
        }
      ],
      "name": "completeOwnershipHandover",
      "outputs": [],
      "stateMutability": "payable",
      "type": "function"
    },
    {
      "inputs": [],
      "name": "decimals",
      "outputs": [
        {
          "internalType": "uint8",
          "name": "",
          "type": "uint8"
        }
      ],
      "stateMutability": "pure",
      "type": "function"
    },
    {
      "inputs": [],
      "name": "eip712Domain",
      "outputs": [
        {
          "internalType": "bytes1",
          "name": "fields",
          "type": "bytes1"
        },
        {
          "internalType": "string",
          "name": "name",
          "type": "string"
        },
        {
          "internalType": "string",
          "name": "version",
          "type": "string"
        },
        {
          "internalType": "uint256",
          "name": "chainId",
          "type": "uint256"
        },
        {
          "internalType": "address",
          "name": "verifyingContract",
          "type": "address"
        },
        {
          "internalType": "bytes32",
          "name": "salt",
          "type": "bytes32"
        },
        {
          "internalType": "uint256[]",
          "name": "extensions",
          "type": "uint256[]"
        }
      ],
      "stateMutability": "view",
      "type": "function"
    },
    {
      "inputs": [
        {
          "internalType": "address",
          "name": "a",
          "type": "address"
        }
      ],
      "name": "getSkipNFT",
      "outputs": [
        {
          "internalType": "bool",
          "name": "",
          "type": "bool"
        }
      ],
      "stateMutability": "view",
      "type": "function"
    },
    {
      "inputs": [],
      "name": "getURI",
      "outputs": [
        {
          "internalType": "string",
          "name": "",
          "type": "string"
        }
      ],
      "stateMutability": "view",
      "type": "function"
    },
    {
      "inputs": [],
      "name": "live",
      "outputs": [
        {
          "internalType": "bool",
          "name": "",
          "type": "bool"
        }
      ],
      "stateMutability": "view",
      "type": "function"
    },
    {
      "inputs": [
        {
          "internalType": "uint256",
          "name": "amount",
          "type": "uint256"
        }
      ],
      "name": "mint",
      "outputs": [],
      "stateMutability": "payable",
      "type": "function"
    },
    {
      "inputs": [],
      "name": "mirrorERC721",
      "outputs": [
        {
          "internalType": "address",
          "name": "",
          "type": "address"
        }
      ],
      "stateMutability": "view",
      "type": "function"
    },
    {
      "inputs": [],
      "name": "name",
      "outputs": [
        {
          "internalType": "string",
          "name": "",
          "type": "string"
        }
      ],
      "stateMutability": "view",
      "type": "function"
    },
    {
      "inputs": [],
      "name": "nftTotalSupply",
      "outputs": [
        {
          "internalType": "uint256",
          "name": "",
          "type": "uint256"
        }
      ],
      "stateMutability": "view",
      "type": "function"
    },
    {
      "inputs": [
        {
          "internalType": "address",
          "name": "owner",
          "type": "address"
        }
      ],
      "name": "nftbalanceOf",
      "outputs": [
        {
          "internalType": "uint256",
          "name": "",
          "type": "uint256"
        }
      ],
      "stateMutability": "view",
      "type": "function"
    },
    {
      "inputs": [
        {
          "internalType": "address",
          "name": "owner",
          "type": "address"
        }
      ],
      "name": "nonces",
      "outputs": [
        {
          "internalType": "uint256",
          "name": "",
          "type": "uint256"
        }
      ],
      "stateMutability": "view",
      "type": "function"
    },
    {
      "inputs": [],
      "name": "numMinted",
      "outputs": [
        {
          "internalType": "uint256",
          "name": "",
          "type": "uint256"
        }
      ],
      "stateMutability": "view",
      "type": "function"
    },
    {
      "inputs": [],
      "name": "owner",
      "outputs": [
        {
          "internalType": "address",
          "name": "result",
          "type": "address"
        }
      ],
      "stateMutability": "view",
      "type": "function"
    },
    {
      "inputs": [
        {
          "internalType": "address",
          "name": "pendingOwner",
          "type": "address"
        }
      ],
      "name": "ownershipHandoverExpiresAt",
      "outputs": [
        {
          "internalType": "uint256",
          "name": "result",
          "type": "uint256"
        }
      ],
      "stateMutability": "view",
      "type": "function"
    },
    {
      "inputs": [
        {
          "internalType": "address",
          "name": "owner",
          "type": "address"
        },
        {
          "internalType": "address",
          "name": "spender",
          "type": "address"
        },
        {
          "internalType": "uint256",
          "name": "value",
          "type": "uint256"
        },
        {
          "internalType": "uint256",
          "name": "deadline",
          "type": "uint256"
        },
        {
          "internalType": "uint8",
          "name": "v",
          "type": "uint8"
        },
        {
          "internalType": "bytes32",
          "name": "r",
          "type": "bytes32"
        },
        {
          "internalType": "bytes32",
          "name": "s",
          "type": "bytes32"
        }
      ],
      "name": "permit",
      "outputs": [],
      "stateMutability": "nonpayable",
      "type": "function"
    },
    {
      "inputs": [],
      "name": "previewNextTokenId",
      "outputs": [
        {
          "internalType": "uint256",
          "name": "",
          "type": "uint256"
        }
      ],
      "stateMutability": "view",
      "type": "function"
    },
    {
      "inputs": [],
      "name": "publicPrice",
      "outputs": [
        {
          "internalType": "uint120",
          "name": "",
          "type": "uint120"
        }
      ],
      "stateMutability": "view",
      "type": "function"
    },
    {
      "inputs": [],
      "name": "renounceOwnership",
      "outputs": [],
      "stateMutability": "payable",
      "type": "function"
    },
    {
      "inputs": [],
      "name": "requestOwnershipHandover",
      "outputs": [],
      "stateMutability": "payable",
      "type": "function"
    },
    {
      "inputs": [
        {
          "internalType": "bytes32",
          "name": "allowlistRoot_",
          "type": "bytes32"
        }
      ],
      "name": "setAllowlist",
      "outputs": [],
      "stateMutability": "nonpayable",
      "type": "function"
    },
    {
      "inputs": [
        {
          "internalType": "uint120",
          "name": "allowlistPrice_",
          "type": "uint120"
        }
      ],
      "name": "setAllowlistPrice",
      "outputs": [],
      "stateMutability": "nonpayable",
      "type": "function"
    },
    {
      "inputs": [
        {
          "internalType": "string",
          "name": "baseURI_",
          "type": "string"
        }
      ],
      "name": "setBaseURI",
      "outputs": [],
      "stateMutability": "nonpayable",
      "type": "function"
    },
    {
      "inputs": [
        {
          "internalType": "uint120",
          "name": "publicPrice_",
          "type": "uint120"
        },
        {
          "internalType": "uint120",
          "name": "allowlistPrice_",
          "type": "uint120"
        }
      ],
      "name": "setPrices",
      "outputs": [],
      "stateMutability": "nonpayable",
      "type": "function"
    },
    {
      "inputs": [
        {
          "internalType": "bool",
          "name": "skipNFT",
          "type": "bool"
        }
      ],
      "name": "setSkipNFT",
      "outputs": [],
      "stateMutability": "nonpayable",
      "type": "function"
    },
    {
      "inputs": [],
      "name": "symbol",
      "outputs": [
        {
          "internalType": "string",
          "name": "",
          "type": "string"
        }
      ],
      "stateMutability": "view",
      "type": "function"
    },
    {
      "inputs": [],
      "name": "toggleLive",
      "outputs": [],
      "stateMutability": "nonpayable",
      "type": "function"
    },
    {
      "inputs": [
        {
          "internalType": "uint256",
          "name": "tokenId",
          "type": "uint256"
        }
      ],
      "name": "tokenURI",
      "outputs": [
        {
          "internalType": "string",
          "name": "result",
          "type": "string"
        }
      ],
      "stateMutability": "view",
      "type": "function"
    },
    {
      "inputs": [],
      "name": "totalSupply",
      "outputs": [
        {
          "internalType": "uint256",
          "name": "",
          "type": "uint256"
        }
      ],
      "stateMutability": "view",
      "type": "function"
    },
    {
      "inputs": [
        {
          "internalType": "address",
          "name": "to",
          "type": "address"
        },
        {
          "internalType": "uint256",
          "name": "amount",
          "type": "uint256"
        }
      ],
      "name": "transfer",
      "outputs": [
        {
          "internalType": "bool",
          "name": "",
          "type": "bool"
        }
      ],
      "stateMutability": "nonpayable",
      "type": "function"
    },
    {
      "inputs": [
        {
          "internalType": "address",
          "name": "from",
          "type": "address"
        },
        {
          "internalType": "address",
          "name": "to",
          "type": "address"
        },
        {
          "internalType": "uint256",
          "name": "amount",
          "type": "uint256"
        }
      ],
      "name": "transferFrom",
      "outputs": [
        {
          "internalType": "bool",
          "name": "",
          "type": "bool"
        }
      ],
      "stateMutability": "nonpayable",
      "type": "function"
    },
    {
      "inputs": [
        {
          "internalType": "address",
          "name": "newOwner",
          "type": "address"
        }
      ],
      "name": "transferOwnership",
      "outputs": [],
      "stateMutability": "payable",
      "type": "function"
    },
    {
      "inputs": [],
      "name": "withdraw",
      "outputs": [],
      "stateMutability": "nonpayable",
      "type": "function"
    },
    {
      "stateMutability": "payable",
      "type": "receive"
    }
  ],
  "bytecode": "0x6101606040523480156200001257600080fd5b5060405162007a5438038062007a54833981810160405281019062000038919062000bf4565b6040518060400160405280600c81526020017f4e46544d696e74444e3430340000000000000000000000000000000000000000815250806040518060400160405280600181526020017f3100000000000000000000000000000000000000000000000000000000000000815250620000bb6000836200023460201b90919060201c565b6101208181525050620000d96001826200023460201b90919060201c565b6101408181525050818051906020012060e08181525050808051906020012061010081815250504660a08181525050620001186200028c60201b60201c565b608081815250503073ffffffffffffffffffffffffffffffffffffffff1660c08173ffffffffffffffffffffffffffffffffffffffff16815250505050506200016733620002e960201b60201c565b856003908162000178919062000f0f565b5084600490816200018a919062000f0f565b508360098190555082600760006101000a8154816effffffffffffffffffffffffffffff02191690836effffffffffffffffffffffffffffff160217905550600033604051620001da906200091e565b620001e6919062001007565b604051809103906000f08015801562000203573d6000803e3d6000fd5b50905062000227836bffffffffffffffffffffffff168383620003cf60201b60201c565b505050505050506200121c565b60006020835110156200025a576200025283620006cd60201b60201c565b905062000286565b826200026c836200073a60201b60201c565b60000190816200027d919062000f0f565b5060ff60001b90505b92915050565b60007f8b73c3c69bb8fe3d512ecc4cf759cc79239f7b179b0ffacaa9a75d522b39400f60e051610100514630604051602001620002ce95949392919062001050565b60405160208183030381529060405280519060200120905090565b620002f96200074460201b60201c565b1562000377577fffffffffffffffffffffffffffffffffffffffffffffffffffffffff748739278054156200033657630dc149f06000526004601cfd5b8160601b60601c9150811560ff1b821781558160007f8be0079c531659141344cd1fd0a4f28419497f9722a3daafe3b4186f6b6457e0600080a350620003cc565b8060601b60601c9050807fffffffffffffffffffffffffffffffffffffffffffffffffffffffff74873927558060007f8be0079c531659141344cd1fd0a4f28419497f9722a3daafe3b4186f6b6457e0600080a35b50565b6000620003e16200074960201b60201c565b905060008160000160049054906101000a900463ffffffff1663ffffffff161462000438576040517fead4d2e400000000000000000000000000000000000000000000000000000000815260040160405180910390fd5b600073ffffffffffffffffffffffffffffffffffffffff168273ffffffffffffffffffffffffffffffffffffffff16036200049f576040517f39a84a7b00000000000000000000000000000000000000000000000000000000815260040160405180910390fd5b620004b0826200075a60201b60201c565b60018160000160046101000a81548163ffffffff021916908363ffffffff160217905550818160010160006101000a81548173ffffffffffffffffffffffffffffffffffffffff021916908373ffffffffffffffffffffffffffffffffffffffff1602179055506000841115620006c757600073ffffffffffffffffffffffffffffffffffffffff168373ffffffffffffffffffffffffffffffffffffffff160362000588576040517fea553b3400000000000000000000000000000000000000000000000000000000815260040160405180910390fd5b6b0de0b6b39983494c589bffff841115620005cf576040517fe5cfe95700000000000000000000000000000000000000000000000000000000815260040160405180910390fd5b8381600001600c6101000a8154816bffffffffffffffffffffffff02191690836bffffffffffffffffffffffff160217905550600062000615846200079060201b60201c565b9050848160000160146101000a8154816bffffffffffffffffffffffff02191690836bffffffffffffffffffffffff1602179055508373ffffffffffffffffffffffffffffffffffffffff16600073ffffffffffffffffffffffffffffffffffffffff167fddf252ad1be2c89b69c2b068fc378daa952ba7f163c4a11628f55a4df523b3ef87604051620006aa9190620010ad565b60405180910390a3620006c58460016200085160201b60201c565b505b50505050565b600080829050601f815111156200071d57826040517f305a27a90000000000000000000000000000000000000000000000000000000081526004016200071491906200111c565b60405180910390fd5b8051816200072b9062001172565b60001c1760001b915050919050565b6000819050919050565b600090565b600068a20d6e21d0e5255308905090565b630f4599e560005233602052602060006024601c6000855af1600160005114166200078d5763d125259c6000526004601cfd5b50565b600080620007a36200074960201b60201c565b90508060080160008473ffffffffffffffffffffffffffffffffffffffff1673ffffffffffffffffffffffffffffffffffffffff16815260200190815260200160002091506000600183600001600b9054906101000a900460ff161660ff16036200084b576000600190506200081f846200091360201b60201c565b156200082c576002811790505b8083600001600b6101000a81548160ff021916908360ff160217905550505b50919050565b600062000864836200079060201b60201c565b90508115156000600283600001600b9054906101000a900460ff161660ff161415151514620008be57600281600001600b8282829054906101000a900460ff161892506101000a81548160ff021916908360ff1602179055505b8273ffffffffffffffffffffffffffffffffffffffff167fb5a1de456fff688115a4f75380060c23c8532d14ff85f687cc871456d642039383604051620009069190620011ff565b60405180910390a2505050565b6000813b9050919050565b6114c8806200658c83390190565b6000604051905090565b600080fd5b600080fd5b600080fd5b600080fd5b6000601f19601f8301169050919050565b7f4e487b7100000000000000000000000000000000000000000000000000000000600052604160045260246000fd5b62000995826200094a565b810181811067ffffffffffffffff82111715620009b757620009b66200095b565b5b80604052505050565b6000620009cc6200092c565b9050620009da82826200098a565b919050565b600067ffffffffffffffff821115620009fd57620009fc6200095b565b5b62000a08826200094a565b9050602081019050919050565b60005b8381101562000a3557808201518184015260208101905062000a18565b60008484015250505050565b600062000a5862000a5284620009df565b620009c0565b90508281526020810184848401111562000a775762000a7662000945565b5b62000a8484828562000a15565b509392505050565b600082601f83011262000aa45762000aa362000940565b5b815162000ab684826020860162000a41565b91505092915050565b6000819050919050565b62000ad48162000abf565b811462000ae057600080fd5b50565b60008151905062000af48162000ac9565b92915050565b60006effffffffffffffffffffffffffffff82169050919050565b62000b208162000afa565b811462000b2c57600080fd5b50565b60008151905062000b408162000b15565b92915050565b60006bffffffffffffffffffffffff82169050919050565b62000b698162000b46565b811462000b7557600080fd5b50565b60008151905062000b898162000b5e565b92915050565b600073ffffffffffffffffffffffffffffffffffffffff82169050919050565b600062000bbc8262000b8f565b9050919050565b62000bce8162000baf565b811462000bda57600080fd5b50565b60008151905062000bee8162000bc3565b92915050565b60008060008060008060c0878903121562000c145762000c1362000936565b5b600087015167ffffffffffffffff81111562000c355762000c346200093b565b5b62000c4389828a0162000a8c565b965050602087015167ffffffffffffffff81111562000c675762000c666200093b565b5b62000c7589828a0162000a8c565b955050604062000c8889828a0162000ae3565b945050606062000c9b89828a0162000b2f565b935050608062000cae89828a0162000b78565b92505060a062000cc189828a0162000bdd565b9150509295509295509295565b600081519050919050565b7f4e487b7100000000000000000000000000000000000000000000000000000000600052602260045260246000fd5b6000600282049050600182168062000d2157607f821691505b60208210810362000d375762000d3662000cd9565b5b50919050565b60008190508160005260206000209050919050565b60006020601f8301049050919050565b600082821b905092915050565b60006008830262000da17fffffffffffffffffffffffffffffffffffffffffffffffffffffffffffffffff8262000d62565b62000dad868362000d62565b95508019841693508086168417925050509392505050565b6000819050919050565b600062000df062000dea62000de48462000abf565b62000dc5565b62000abf565b9050919050565b6000819050919050565b62000e0c8362000dcf565b62000e2462000e1b8262000df7565b84845462000d6f565b825550505050565b600090565b62000e3b62000e2c565b62000e4881848462000e01565b505050565b5b8181101562000e705762000e6460008262000e31565b60018101905062000e4e565b5050565b601f82111562000ebf5762000e898162000d3d565b62000e948462000d52565b8101602085101562000ea4578190505b62000ebc62000eb38562000d52565b83018262000e4d565b50505b505050565b600082821c905092915050565b600062000ee46000198460080262000ec4565b1980831691505092915050565b600062000eff838362000ed1565b9150826002028217905092915050565b62000f1a8262000cce565b67ffffffffffffffff81111562000f365762000f356200095b565b5b62000f42825462000d08565b62000f4f82828562000e74565b600060209050601f83116001811462000f87576000841562000f72578287015190505b62000f7e858262000ef1565b86555062000fee565b601f19841662000f978662000d3d565b60005b8281101562000fc15784890151825560018201915060208501945060208101905062000f9a565b8683101562000fe1578489015162000fdd601f89168262000ed1565b8355505b6001600288020188555050505b505050505050565b620010018162000baf565b82525050565b60006020820190506200101e600083018462000ff6565b92915050565b6000819050919050565b620010398162001024565b82525050565b6200104a8162000abf565b82525050565b600060a0820190506200106760008301886200102e565b6200107660208301876200102e565b6200108560408301866200102e565b6200109460608301856200103f565b620010a3608083018462000ff6565b9695505050505050565b6000602082019050620010c460008301846200103f565b92915050565b600082825260208201905092915050565b6000620010e88262000cce565b620010f48185620010ca565b93506200110681856020860162000a15565b62001111816200094a565b840191505092915050565b60006020820190508181036000830152620011388184620010db565b905092915050565b600081519050919050565b6000819050602082019050919050565b600062001169825162001024565b80915050919050565b60006200117f8262001140565b826200118b846200114b565b905062001198816200115b565b92506020821015620011db57620011d67fffffffffffffffffffffffffffffffffffffffffffffffffffffffffffffffff8360200360080262000d62565b831692505b5050919050565b60008115159050919050565b620011f981620011e2565b82525050565b6000602082019050620012166000830184620011ee565b92915050565b60805160a05160c05160e051610100516101205161014051615315620012776000396000613c1501526000613bda01526000613e6301526000613e4201526000613511015260006135670152600061359001526153156000f3fe60806040526004361061024a5760003560e01c80637bc9200e11610139578063c364f15e116100b6578063d95cd6ea1161007a578063d95cd6ea14610fcf578063dd62ed3e1461100c578063ec0d755714611049578063f04e283e14611060578063f2fde38b1461107c578063fee81cf41461109857610251565b8063c364f15e14610eec578063c87b56dd14610f15578063cf1c73b214610f52578063d505accf14610f7b578063d52079b414610fa457610251565b8063957aa58c116100fd578063957aa58c14610e1257806395d89b4114610e3d578063a0712d6814610e68578063a9059cbb14610e84578063a945bf8014610ec157610251565b80637bc9200e14610d325780637ecebe0014610d4e57806384b0196e14610d8b5780638da5cb5b14610dbc57806390967a5214610de757610251565b8063313ce567116101c757806354d1f13d1161018b57806354d1f13d14610c8d57806355f804b314610c9757806370a0823114610cc0578063715018a614610cfd5780637754305c14610d0757610251565b8063313ce56714610bca57806332cb6b0c14610bf55780633644e51514610c205780633ccfd60b14610c4b5780634ef41efc14610c6257610251565b806318160ddd1161020e57806318160ddd14610af257806323b872dd14610b1d5780632569296214610b5a578063274e430b14610b645780632a6a935d14610ba157610251565b806306fdde0314610a0b57806307c8c64014610a36578063095ea7b314610a5f5780630bb2378414610a9c57806317b9c06a14610ac757610251565b3661025157005b600061025b6110d5565b9050600060e061026b60006110e6565b901c905063e985e9c581036103d9578160010160009054906101000a900473ffffffffffffffffffffffffffffffffffffffff1673ffffffffffffffffffffffffffffffffffffffff163373ffffffffffffffffffffffffffffffffffffffff1614610303576040517fce5a776b00000000000000000000000000000000000000000000000000000000815260040160405180910390fd5b60446000369050101561031557600080fd5b600061032160046110e6565b9050600061032f60246110e6565b90506103d68460030160008473ffffffffffffffffffffffffffffffffffffffff1673ffffffffffffffffffffffffffffffffffffffff16815260200190815260200160002060008373ffffffffffffffffffffffffffffffffffffffff1673ffffffffffffffffffffffffffffffffffffffff16815260200190815260200160002060009054906101000a900460ff166103cb5760006103ce565b60015b60ff166110f1565b50505b636352211e81036104b6578160010160009054906101000a900473ffffffffffffffffffffffffffffffffffffffff1673ffffffffffffffffffffffffffffffffffffffff163373ffffffffffffffffffffffffffffffffffffffff161461046d576040517fce5a776b00000000000000000000000000000000000000000000000000000000815260040160405180910390fd5b60246000369050101561047f57600080fd5b600061048b60046110e6565b90506104b4610499826110fb565b73ffffffffffffffffffffffffffffffffffffffff166110f1565b505b63e5eb36c881036105af578160010160009054906101000a900473ffffffffffffffffffffffffffffffffffffffff1673ffffffffffffffffffffffffffffffffffffffff163373ffffffffffffffffffffffffffffffffffffffff161461054a576040517fce5a776b00000000000000000000000000000000000000000000000000000000815260040160405180910390fd5b60846000369050101561055c57600080fd5b600061056860046110e6565b9050600061057660246110e6565b9050600061058460446110e6565b9050600061059260646110e6565b90506105a08484848461114c565b6105aa60016110f1565b505050505b63813500fc810361069b578160010160009054906101000a900473ffffffffffffffffffffffffffffffffffffffff1673ffffffffffffffffffffffffffffffffffffffff163373ffffffffffffffffffffffffffffffffffffffff1614610643576040517fce5a776b00000000000000000000000000000000000000000000000000000000815260040160405180910390fd5b60646000369050101561065557600080fd5b600061066160046110e6565b905060008061067060246110e6565b14159050600061068060446110e6565b905061068d838383611746565b61069760016110f1565b5050505b63d10b6e0c8103610798578160010160009054906101000a900473ffffffffffffffffffffffffffffffffffffffff1673ffffffffffffffffffffffffffffffffffffffff163373ffffffffffffffffffffffffffffffffffffffff161461072f576040517fce5a776b00000000000000000000000000000000000000000000000000000000815260040160405180910390fd5b60646000369050101561074157600080fd5b600061074d60046110e6565b9050600061075b60246110e6565b9050600061076960446110e6565b90506107946107798484846117e8565b73ffffffffffffffffffffffffffffffffffffffff166110f1565b5050505b63081812fc8103610875578160010160009054906101000a900473ffffffffffffffffffffffffffffffffffffffff1673ffffffffffffffffffffffffffffffffffffffff163373ffffffffffffffffffffffffffffffffffffffff161461082c576040517fce5a776b00000000000000000000000000000000000000000000000000000000815260040160405180910390fd5b60246000369050101561083e57600080fd5b600061084a60046110e6565b9050610873610858826119a5565b73ffffffffffffffffffffffffffffffffffffffff166110f1565b505b63f5b100ea810361093c578160010160009054906101000a900473ffffffffffffffffffffffffffffffffffffffff1673ffffffffffffffffffffffffffffffffffffffff163373ffffffffffffffffffffffffffffffffffffffff1614610909576040517fce5a776b00000000000000000000000000000000000000000000000000000000815260040160405180910390fd5b60246000369050101561091b57600080fd5b600061092760046110e6565b905061093a61093582611a2a565b6110f1565b505b63e2c7928181036109f3578160010160009054906101000a900473ffffffffffffffffffffffffffffffffffffffff1673ffffffffffffffffffffffffffffffffffffffff163373ffffffffffffffffffffffffffffffffffffffff16146109d0576040517fce5a776b00000000000000000000000000000000000000000000000000000000815260040160405180910390fd5b6004600036905010156109e257600080fd5b6109f26109ed611a95565b6110f1565b5b63b7a94eb88103610a0957610a0860016110f1565b5b005b348015610a1757600080fd5b50610a20611abe565b604051610a2d91906143a5565b60405180910390f35b348015610a4257600080fd5b50610a5d6004803603810190610a589190614418565b611b50565b005b348015610a6b57600080fd5b50610a866004803603810190610a8191906144ec565b611bca565b604051610a939190614547565b60405180910390f35b348015610aa857600080fd5b50610ab1611cca565b604051610abe9190614571565b60405180910390f35b348015610ad357600080fd5b50610adc611cd9565b604051610ae99190614571565b60405180910390f35b348015610afe57600080fd5b50610b07611ce8565b604051610b149190614571565b60405180910390f35b348015610b2957600080fd5b50610b446004803603810190610b3f919061458c565b611d21565b604051610b519190614547565b60405180910390f35b610b62611eb0565b005b348015610b7057600080fd5b50610b8b6004803603810190610b8691906145df565b611f04565b604051610b989190614547565b60405180910390f35b348015610bad57600080fd5b50610bc86004803603810190610bc39190614638565b611fa6565b005b348015610bd657600080fd5b50610bdf611fb3565b604051610bec9190614681565b60405180910390f35b348015610c0157600080fd5b50610c0a611fbc565b604051610c179190614571565b60405180910390f35b348015610c2c57600080fd5b50610c35611fc2565b604051610c4291906146b5565b60405180910390f35b348015610c5757600080fd5b50610c60611fd1565b005b348015610c6e57600080fd5b50610c77611fe4565b604051610c8491906146df565b60405180910390f35b610c95612017565b005b348015610ca357600080fd5b50610cbe6004803603810190610cb9919061475f565b612053565b005b348015610ccc57600080fd5b50610ce76004803603810190610ce291906145df565b612071565b604051610cf49190614571565b60405180910390f35b610d056120ec565b005b348015610d1357600080fd5b50610d1c612100565b604051610d2991906143a5565b60405180910390f35b610d4c6004803603810190610d479190614802565b612192565b005b348015610d5a57600080fd5b50610d756004803603810190610d7091906145df565b61231f565b604051610d829190614571565b60405180910390f35b348015610d9757600080fd5b50610da0612331565b604051610db3979695949392919061495b565b60405180910390f35b348015610dc857600080fd5b50610dd16123db565b604051610dde91906146df565b60405180910390f35b348015610df357600080fd5b50610dfc612404565b604051610e0991906149ee565b60405180910390f35b348015610e1e57600080fd5b50610e27612425565b604051610e349190614547565b60405180910390f35b348015610e4957600080fd5b50610e52612438565b604051610e5f91906143a5565b60405180910390f35b610e826004803603810190610e7d9190614a09565b6124ca565b005b348015610e9057600080fd5b50610eab6004803603810190610ea691906144ec565b6125eb565b604051610eb89190614547565b60405180910390f35b348015610ecd57600080fd5b50610ed6612602565b604051610ee391906149ee565b60405180910390f35b348015610ef857600080fd5b50610f136004803603810190610f0e9190614a36565b612623565b005b348015610f2157600080fd5b50610f3c6004803603810190610f379190614a09565b612665565b604051610f4991906143a5565b60405180910390f35b348015610f5e57600080fd5b50610f796004803603810190610f749190614a8f565b6126b0565b005b348015610f8757600080fd5b50610fa26004803603810190610f9d9190614ae8565b6126c2565b005b348015610fb057600080fd5b50610fb96128f4565b604051610fc69190614571565b60405180910390f35b348015610fdb57600080fd5b50610ff66004803603810190610ff191906145df565b6128fa565b6040516110039190614571565b60405180910390f35b34801561101857600080fd5b50611033600480360381019061102e9190614b8a565b61290c565b6040516110409190614571565b60405180910390f35b34801561105557600080fd5b5061105e61299c565b005b61107a600480360381019061107591906145df565b6129d0565b005b611096600480360381019061109191906145df565b612a11565b005b3480156110a457600080fd5b506110bf60048036038101906110ba91906145df565b612a3b565b6040516110cc9190614571565b60405180910390f35b600068a20d6e21d0e5255308905090565b600081359050919050565b8060005260206000f35b600061110682612a56565b61113c576040517fceea21b600000000000000000000000000000000000000000000000000000000815260040160405180910390fd5b61114582612a97565b9050919050565b60006111566110d5565b9050600073ffffffffffffffffffffffffffffffffffffffff168473ffffffffffffffffffffffffffffffffffffffff16036111be576040517fea553b3400000000000000000000000000000000000000000000000000000000815260040160405180910390fd5b60008160020160006111db846007016111d688612b02565b612b10565b63ffffffff1663ffffffff16815260200190815260200160002060009054906101000a900473ffffffffffffffffffffffffffffffffffffffff1690508073ffffffffffffffffffffffffffffffffffffffff168673ffffffffffffffffffffffffffffffffffffffff161461127d576040517fa114810000000000000000000000000000000000000000000000000000000000815260040160405180910390fd5b8573ffffffffffffffffffffffffffffffffffffffff168373ffffffffffffffffffffffffffffffffffffffff16146113dc578160030160008773ffffffffffffffffffffffffffffffffffffffff1673ffffffffffffffffffffffffffffffffffffffff16815260200190815260200160002060008473ffffffffffffffffffffffffffffffffffffffff1673ffffffffffffffffffffffffffffffffffffffff16815260200190815260200160002060009054906101000a900460ff166113db5781600401600085815260200190815260200160002060009054906101000a900473ffffffffffffffffffffffffffffffffffffffff1673ffffffffffffffffffffffffffffffffffffffff168373ffffffffffffffffffffffffffffffffffffffff16146113da576040517f59c896be00000000000000000000000000000000000000000000000000000000815260040160405180910390fd5b5b5b60006113e787612b3e565b905060006113f487612b3e565b9050670de0b6b3a76400008260000160148282829054906101000a90046bffffffffffffffffffffffff166114299190614c11565b92506101000a8154816bffffffffffffffffffffffff02191690836bffffffffffffffffffffffff160217905550670de0b6b3a76400008160000160148282829054906101000a90046bffffffffffffffffffffffff160192506101000a8154816bffffffffffffffffffffffff02191690836bffffffffffffffffffffffff1602179055506114ce846007016114bf88612b02565b6114c9848b612bed565b612ce9565b83600401600087815260200190815260200160002060006101000a81549073ffffffffffffffffffffffffffffffffffffffff0219169055600061158f8560060160008b73ffffffffffffffffffffffffffffffffffffffff1673ffffffffffffffffffffffffffffffffffffffff16815260200190815260200160002084600001601081819054906101000a900463ffffffff166001900391906101000a81548163ffffffff021916908363ffffffff160217905563ffffffff16612b10565b63ffffffff1690506115fc8560060160008b73ffffffffffffffffffffffffffffffffffffffff1673ffffffffffffffffffffffffffffffffffffffff1681526020019081526020016000206115f0876007016115eb8b612d1d565b612b10565b63ffffffff1683612ce9565b600082600001601081819054906101000a900463ffffffff168092919060010191906101000a81548163ffffffff021916908363ffffffff16021790555063ffffffff16905061166c8660070161165284612d1d565b611667896007016116628d612d1d565b612b10565b612ce9565b6116b78660060160008b73ffffffffffffffffffffffffffffffffffffffff1673ffffffffffffffffffffffffffffffffffffffff168152602001908152602001600020828a612ce9565b6116cd866007016116c78a612d1d565b83612ce9565b50508673ffffffffffffffffffffffffffffffffffffffff168873ffffffffffffffffffffffffffffffffffffffff167fddf252ad1be2c89b69c2b068fc378daa952ba7f163c4a11628f55a4df523b3ef670de0b6b3a76400006040516117349190614571565b60405180910390a35050505050505050565b8161174f6110d5565b60030160008373ffffffffffffffffffffffffffffffffffffffff1673ffffffffffffffffffffffffffffffffffffffff16815260200190815260200160002060008573ffffffffffffffffffffffffffffffffffffffff1673ffffffffffffffffffffffffffffffffffffffff16815260200190815260200160002060006101000a81548160ff021916908315150217905550505050565b6000806117f36110d5565b905060008160020160006118128460070161180d89612b02565b612b10565b63ffffffff1663ffffffff16815260200190815260200160002060009054906101000a900473ffffffffffffffffffffffffffffffffffffffff1690508073ffffffffffffffffffffffffffffffffffffffff168473ffffffffffffffffffffffffffffffffffffffff1614611945578160030160008273ffffffffffffffffffffffffffffffffffffffff1673ffffffffffffffffffffffffffffffffffffffff16815260200190815260200160002060008573ffffffffffffffffffffffffffffffffffffffff1673ffffffffffffffffffffffffffffffffffffffff16815260200190815260200160002060009054906101000a900460ff16611944576040517fcfb3b94200000000000000000000000000000000000000000000000000000000815260040160405180910390fd5b5b8582600401600087815260200190815260200160002060006101000a81548173ffffffffffffffffffffffffffffffffffffffff021916908373ffffffffffffffffffffffffffffffffffffffff16021790555080925050509392505050565b60006119b082612a56565b6119e6576040517fceea21b600000000000000000000000000000000000000000000000000000000815260040160405180910390fd5b6119ee6110d5565b600401600083815260200190815260200160002060009054906101000a900473ffffffffffffffffffffffffffffffffffffffff169050919050565b6000611a346110d5565b60080160008373ffffffffffffffffffffffffffffffffffffffff1673ffffffffffffffffffffffffffffffffffffffff16815260200190815260200160002060000160109054906101000a900463ffffffff1663ffffffff169050919050565b6000611a9f6110d5565b60000160089054906101000a900463ffffffff1663ffffffff16905090565b606060038054611acd90614c80565b80601f0160208091040260200160405190810160405280929190818152602001828054611af990614c80565b8015611b465780601f10611b1b57610100808354040283529160200191611b46565b820191906000526020600020905b815481529060010190602001808311611b2957829003601f168201915b5050505050905090565b611b58612d2d565b81600760006101000a8154816effffffffffffffffffffffffffffff02191690836effffffffffffffffffffffffffffff160217905550806007600f6101000a8154816effffffffffffffffffffffffffffff02191690836effffffffffffffffffffffffffffff1602179055505050565b600080611bd56110d5565b9050828160050160003373ffffffffffffffffffffffffffffffffffffffff1673ffffffffffffffffffffffffffffffffffffffff16815260200190815260200160002060008673ffffffffffffffffffffffffffffffffffffffff1673ffffffffffffffffffffffffffffffffffffffff168152602001908152602001600020819055508373ffffffffffffffffffffffffffffffffffffffff163373ffffffffffffffffffffffffffffffffffffffff167f8c5be1e5ebec7d5bd14f71427d1e84f3dd0314c0f7b2291e5b200ac8c7c3b92585604051611cb79190614571565b60405180910390a3600191505092915050565b6000611cd4611a95565b905090565b6000611ce3612d65565b905090565b6000611cf26110d5565b600001600c9054906101000a90046bffffffffffffffffffffffff166bffffffffffffffffffffffff16905090565b600080611d2c6110d5565b905060008160050160008773ffffffffffffffffffffffffffffffffffffffff1673ffffffffffffffffffffffffffffffffffffffff16815260200190815260200160002060003373ffffffffffffffffffffffffffffffffffffffff1673ffffffffffffffffffffffffffffffffffffffff1681526020019081526020016000205490507fffffffffffffffffffffffffffffffffffffffffffffffffffffffffffffffff8114611e985780841115611e12576040517f13be252b00000000000000000000000000000000000000000000000000000000815260040160405180910390fd5b8381038260050160008873ffffffffffffffffffffffffffffffffffffffff1673ffffffffffffffffffffffffffffffffffffffff16815260200190815260200160002060003373ffffffffffffffffffffffffffffffffffffffff1673ffffffffffffffffffffffffffffffffffffffff168152602001908152602001600020819055505b611ea3868686612d8e565b6001925050509392505050565b6000611eba613440565b67ffffffffffffffff164201905063389a75e1600c5233600052806020600c2055337fdbf36a107da19e49527a7176a1babf963b4b0ff8cde35ee35d6cd8f1f9ac7e1d600080a250565b600080611f0f6110d5565b60080160008473ffffffffffffffffffffffffffffffffffffffff1673ffffffffffffffffffffffffffffffffffffffff16815260200190815260200160002090506000600182600001600b9054906101000a900460ff161660ff1603611f8157611f798361344b565b915050611fa1565b6000600282600001600b9054906101000a900460ff161660ff1614159150505b919050565b611fb03382613456565b50565b60006012905090565b60095481565b6000611fcc61350d565b905090565b611fd9612d2d565b611fe2336135c4565b565b6000611fee6110d5565b60010160009054906101000a900473ffffffffffffffffffffffffffffffffffffffff16905090565b63389a75e1600c523360005260006020600c2055337ffa7b8eab7da67f412cc9575ed43464468f9bfbae89d1675917346ca6d8fe3c92600080a2565b61205b612d2d565b81816005918261206c929190614e97565b505050565b600061207b6110d5565b60080160008373ffffffffffffffffffffffffffffffffffffffff1673ffffffffffffffffffffffffffffffffffffffff16815260200190815260200160002060000160149054906101000a90046bffffffffffffffffffffffff166bffffffffffffffffffffffff169050919050565b6120f4612d2d565b6120fe60006135e3565b565b60606005805461210f90614c80565b80601f016020809104026020016040519081016040528092919081815260200182805461213b90614c80565b80156121885780601f1061215d57610100808354040283529160200191612188565b820191906000526020600020905b81548152906001019060200180831161216b57829003601f168201915b5050505050905090565b6007600f9054906101000a90046effffffffffffffffffffffffffffff166effffffffffffffffffffffffffffff16836007601e9054906101000a900460ff16612208576040517fbaf13b3f00000000000000000000000000000000000000000000000000000000815260040160405180910390fd5b3481836122159190614f67565b1461224b576040517ebfc92100000000000000000000000000000000000000000000000000000000815260040160405180910390fd5b6009548160085461225c9190614fa9565b1115612294576040517f7be9badb00000000000000000000000000000000000000000000000000000000815260040160405180910390fd5b6122c88484600654336040516020016122ad9190615025565b604051602081830303815290604052805190602001206136ab565b6122fe576040517f09bde33900000000000000000000000000000000000000000000000000000000815260040160405180910390fd5b600860008154600101919050819055506123183386613703565b5050505050565b600061232a82613b88565b9050919050565b600060608060008060006060612345613bd1565b61234d613c0c565b46306000801b600067ffffffffffffffff81111561236e5761236d614cbc565b5b60405190808252806020026020018201604052801561239c5781602001602082028036833780820191505090505b507f0f00000000000000000000000000000000000000000000000000000000000000959493929190965096509650965096509650965090919293949596565b60007fffffffffffffffffffffffffffffffffffffffffffffffffffffffff7487392754905090565b6007600f9054906101000a90046effffffffffffffffffffffffffffff1681565b6007601e9054906101000a900460ff1681565b60606004805461244790614c80565b80601f016020809104026020016040519081016040528092919081815260200182805461247390614c80565b80156124c05780601f10612495576101008083540402835291602001916124c0565b820191906000526020600020905b8154815290600101906020018083116124a357829003601f168201915b5050505050905090565b600760009054906101000a90046effffffffffffffffffffffffffffff166effffffffffffffffffffffffffffff16816007601e9054906101000a900460ff16612540576040517fbaf13b3f00000000000000000000000000000000000000000000000000000000815260040160405180910390fd5b34818361254d9190614f67565b14612583576040517ebfc92100000000000000000000000000000000000000000000000000000000815260040160405180910390fd5b600954816008546125949190614fa9565b11156125cc576040517f7be9badb00000000000000000000000000000000000000000000000000000000815260040160405180910390fd5b600860008154600101919050819055506125e63384613703565b505050565b60006125f8338484612d8e565b6001905092915050565b600760009054906101000a90046effffffffffffffffffffffffffffff1681565b61262b612d2d565b806007600f6101000a8154816effffffffffffffffffffffffffffff02191690836effffffffffffffffffffffffffffff16021790555050565b606060006005805461267690614c80565b9050146126ab57600561268883613c47565b6040516020016126999291906150ff565b60405160208183030381529060405290505b919050565b6126b8612d2d565b8060068190555050565b8342111561270757836040517f627913020000000000000000000000000000000000000000000000000000000081526004016126fe9190614571565b60405180910390fd5b60007f6e71edae12b1b97f4d1f60370fef10105fa2faae0126114a169c64845d6126c98888886127368c613c98565b8960405160200161274c96959493929190615123565b604051602081830303815290604052805190602001209050600061276f82613cef565b9050600061277f82878787613d09565b90508973ffffffffffffffffffffffffffffffffffffffff168173ffffffffffffffffffffffffffffffffffffffff16146127f357808a6040517f4b800e460000000000000000000000000000000000000000000000000000000081526004016127ea929190615184565b60405180910390fd5b60006127fd6110d5565b9050888160050160008d73ffffffffffffffffffffffffffffffffffffffff1673ffffffffffffffffffffffffffffffffffffffff16815260200190815260200160002060008c73ffffffffffffffffffffffffffffffffffffffff1673ffffffffffffffffffffffffffffffffffffffff168152602001908152602001600020819055508973ffffffffffffffffffffffffffffffffffffffff168b73ffffffffffffffffffffffffffffffffffffffff167f8c5be1e5ebec7d5bd14f71427d1e84f3dd0314c0f7b2291e5b200ac8c7c3b9258b6040516128df9190614571565b60405180910390a35050505050505050505050565b60085481565b600061290582611a2a565b9050919050565b60006129166110d5565b60050160008473ffffffffffffffffffffffffffffffffffffffff1673ffffffffffffffffffffffffffffffffffffffff16815260200190815260200160002060008373ffffffffffffffffffffffffffffffffffffffff1673ffffffffffffffffffffffffffffffffffffffff16815260200190815260200160002054905092915050565b6129a4612d2d565b6007601e9054906101000a900460ff16156007601e6101000a81548160ff021916908315150217905550565b6129d8612d2d565b63389a75e1600c52806000526020600c208054421115612a0057636f5e88186000526004601cfd5b6000815550612a0e816135e3565b50565b612a19612d2d565b8060601b612a2f57637448fbae6000526004601cfd5b612a38816135e3565b50565b600063389a75e1600c52816000526020600c20549050919050565b60008073ffffffffffffffffffffffffffffffffffffffff16612a7883612a97565b73ffffffffffffffffffffffffffffffffffffffff1614159050919050565b600080612aa26110d5565b9050806002016000612abf83600701612aba87612b02565b612b10565b63ffffffff1663ffffffff16815260200190815260200160002060009054906101000a900473ffffffffffffffffffffffffffffffffffffffff16915050919050565b6000600182901b9050919050565b6000600560078316901b836000016000600385901c815260200190815260200160002054901c905092915050565b600080612b496110d5565b90508060080160008473ffffffffffffffffffffffffffffffffffffffff1673ffffffffffffffffffffffffffffffffffffffff16815260200190815260200160002091506000600183600001600b9054906101000a900460ff161660ff1603612be757600060019050612bbc8461344b565b15612bc8576002811790505b8083600001600b6101000a81548160ff021916908360ff160217905550505b50919050565b600080612bf86110d5565b905083600001600c9054906101000a900463ffffffff16915060008263ffffffff1603612ce25780600001600081819054906101000a900463ffffffff16612c3f906151bd565b91906101000a81548163ffffffff021916908363ffffffff160217905591508184600001600c6101000a81548163ffffffff021916908363ffffffff160217905550828160020160008463ffffffff1663ffffffff16815260200190815260200160002060006101000a81548173ffffffffffffffffffffffffffffffffffffffff021916908373ffffffffffffffffffffffffffffffffffffffff1602179055505b5092915050565b826020528160031c60005260406000206007831660051b815463ffffffff8482841c188116831b8218845550505050505050565b600060018083901b019050919050565b7fffffffffffffffffffffffffffffffffffffffffffffffffffffffff74873927543314612d63576382b429006000526004601cfd5b565b6000612d6f6110d5565b60000160049054906101000a900463ffffffff1663ffffffff16905090565b600073ffffffffffffffffffffffffffffffffffffffff168273ffffffffffffffffffffffffffffffffffffffff1603612df4576040517fea553b3400000000000000000000000000000000000000000000000000000000815260040160405180910390fd5b6000612dfe6110d5565b90506000612e0b85612b3e565b90506000612e1885612b3e565b9050612e226142c5565b8260000160109054906101000a900463ffffffff1663ffffffff168160800181815250508160000160109054906101000a900463ffffffff1663ffffffff168160a00181815250508260000160149054906101000a90046bffffffffffffffffffffffff166bffffffffffffffffffffffff168160400181815250508060400151851115612edc576040517ff4d678b800000000000000000000000000000000000000000000000000000000815260040160405180910390fd5b8481604001818151039150818152505080604001518360000160146101000a8154816bffffffffffffffffffffffff02191690836bffffffffffffffffffffffff160217905550848260000160149054906101000a90046bffffffffffffffffffffffff166bffffffffffffffffffffffff160181606001818152508260000160146101000a8154816bffffffffffffffffffffffff02191690836bffffffffffffffffffffffff160217905550612fb48160800151670de0b6b3a7640000836040015181612fae57612fad6151e9565b5b04613d39565b8160000181815250506000600283600001600b9054906101000a900460ff161660ff1603613058578573ffffffffffffffffffffffffffffffffffffffff168773ffffffffffffffffffffffffffffffffffffffff16036130245780600001518160800151038160a00181815250505b61304e670de0b6b3a7640000826060015181613043576130426151e9565b5b048260a00151613d39565b8160200181815250505b600061306d8260200151836000015101613d4a565b905060008260000151146131b05760008560060160008a73ffffffffffffffffffffffffffffffffffffffff1673ffffffffffffffffffffffffffffffffffffffff1681526020019081526020016000209050600083608001519050600084600001518203905084600001518860000160088282829054906101000a900463ffffffff160392506101000a81548163ffffffff021916908363ffffffff160217905550808760000160106101000a81548163ffffffff021916908363ffffffff1602179055505b6000613147848460019003945084612b10565b63ffffffff16905061315f8960070182600080613d77565b88600401600082815260200190815260200160002060006101000a81549073ffffffffffffffffffffffffffffffffffffffff02191690556131a4858d836001613dbd565b50808203613134575050505b60008260200151146133955760008560060160008973ffffffffffffffffffffffffffffffffffffffff1673ffffffffffffffffffffffffffffffffffffffff168152602001908152602001600020905060008360a00151905060008460200151820190506000613221878c612bed565b90506000670de0b6b3a76400008a600001600c9054906101000a90046bffffffffffffffffffffffff166bffffffffffffffffffffffff1681613267576132666151e9565b5b04905060008a60000160049054906101000a900463ffffffff1663ffffffff16905087602001518b60000160088282829054906101000a900463ffffffff160192506101000a81548163ffffffff021916908363ffffffff160217905550838960000160106101000a81548163ffffffff021916908363ffffffff1602179055505b5b60006133018c6007016132fc84612b02565b612b10565b63ffffffff1614613324578181600101915081111561331f57600190505b6132ea565b61332f868683612ce9565b6133448b600701828588806001019950613d77565b613351878e836000613dbd565b8181600101915081111561336457600190505b8385036132e957808b60000160046101000a81548163ffffffff021916908363ffffffff1602179055505050505050505b6000816000015151146133d1576133d0818660010160009054906101000a900473ffffffffffffffffffffffffffffffffffffffff16613ddf565b5b508573ffffffffffffffffffffffffffffffffffffffff168773ffffffffffffffffffffffffffffffffffffffff167fddf252ad1be2c89b69c2b068fc378daa952ba7f163c4a11628f55a4df523b3ef8760405161342f9190614571565b60405180910390a350505050505050565b60006202a300905090565b6000813b9050919050565b600061346183612b3e565b90508115156000600283600001600b9054906101000a900460ff161660ff1614151515146134ba57600281600001600b8282829054906101000a900460ff161892506101000a81548160ff021916908360ff1602179055505b8273ffffffffffffffffffffffffffffffffffffffff167fb5a1de456fff688115a4f75380060c23c8532d14ff85f687cc871456d6420393836040516135009190614547565b60405180910390a2505050565b60007f000000000000000000000000000000000000000000000000000000000000000073ffffffffffffffffffffffffffffffffffffffff163073ffffffffffffffffffffffffffffffffffffffff1614801561358957507f000000000000000000000000000000000000000000000000000000000000000046145b156135b6577f000000000000000000000000000000000000000000000000000000000000000090506135c1565b6135be613e1d565b90505b90565b60003860003847855af16135e05763b12d13eb6000526004601cfd5b50565b6135eb613eb3565b15613651577fffffffffffffffffffffffffffffffffffffffffffffffffffffffff748739278160601b60601c91508181547f8be0079c531659141344cd1fd0a4f28419497f9722a3daafe3b4186f6b6457e0600080a3811560ff1b82178155506136a8565b7fffffffffffffffffffffffffffffffffffffffffffffffffffffffff748739278160601b60601c91508181547f8be0079c531659141344cd1fd0a4f28419497f9722a3daafe3b4186f6b6457e0600080a3818155505b50565b600083156136f6578360051b8501855b6001156136f3578035841160051b84815281356020821852604060002094506020820191508282106136ed57506136f3565b506136bb565b50505b8282149050949350505050565b600073ffffffffffffffffffffffffffffffffffffffff168273ffffffffffffffffffffffffffffffffffffffff1603613769576040517fea553b3400000000000000000000000000000000000000000000000000000000815260040160405180910390fd5b60006137736110d5565b9050600061378084612b3e565b905060008383600001600c9054906101000a90046bffffffffffffffffffffffff166bffffffffffffffffffffffff160190506b0de0b6b39983494c589bffff8411806137d857506b0de0b6b39983494c589bffff81115b1561380f576040517fe5cfe95700000000000000000000000000000000000000000000000000000000815260040160405180910390fd5b8083600001600c6101000a8154816bffffffffffffffffffffffff02191690836bffffffffffffffffffffffff1602179055506000848360000160149054906101000a90046bffffffffffffffffffffffff166bffffffffffffffffffffffff16019050808360000160146101000a8154816bffffffffffffffffffffffff02191690836bffffffffffffffffffffffff1602179055506000600284600001600b9054906101000a900460ff161660ff1603613b1a5760008460060160008873ffffffffffffffffffffffffffffffffffffffff1673ffffffffffffffffffffffffffffffffffffffff168152602001908152602001600020905060008460000160109054906101000a900463ffffffff1663ffffffff1690506000670de0b6b3a76400008481613943576139426151e9565b5b049050600061395a6139558385613d39565b613d4a565b9050600081600001515114613b15576000670de0b6b3a764000089600001600c9054906101000a90046bffffffffffffffffffffffff166bffffffffffffffffffffffff16816139ad576139ac6151e9565b5b04905060006139bc898d612bed565b905060008a60000160049054906101000a900463ffffffff1663ffffffff1690508360000151518b60000160088282829054906101000a900463ffffffff160192506101000a81548163ffffffff021916908363ffffffff160217905550848a60000160106101000a81548163ffffffff021916908363ffffffff1602179055505b5b6000613a568c600701613a5184612b02565b612b10565b63ffffffff1614613a795782816001019150811115613a7457600190505b613a3f565b613a84878783612ce9565b613a998b600701828489806001019a50613d77565b613aa6848e836000613dbd565b82816001019150811115613ab957600190505b848603613a3e57808b60000160046101000a81548163ffffffff021916908363ffffffff160217905550613b11848c60010160009054906101000a900473ffffffffffffffffffffffffffffffffffffffff16613ddf565b5050505b505050505b50508373ffffffffffffffffffffffffffffffffffffffff16600073ffffffffffffffffffffffffffffffffffffffff167fddf252ad1be2c89b69c2b068fc378daa952ba7f163c4a11628f55a4df523b3ef85604051613b7a9190614571565b60405180910390a350505050565b6000600260008373ffffffffffffffffffffffffffffffffffffffff1673ffffffffffffffffffffffffffffffffffffffff168152602001908152602001600020549050919050565b6060613c0760007f0000000000000000000000000000000000000000000000000000000000000000613eb890919063ffffffff16565b905090565b6060613c4260017f0000000000000000000000000000000000000000000000000000000000000000613eb890919063ffffffff16565b905090565b60606080604051019050602081016040526000815280600019835b600115613c83578184019350600a81066030018453600a8104905080613c62575b50828203602084039350808452505050919050565b6000600260008373ffffffffffffffffffffffffffffffffffffffff1673ffffffffffffffffffffffffffffffffffffffff1681526020019081526020016000206000815480929190600101919050559050919050565b6000613d02613cfc61350d565b83613f68565b9050919050565b600080600080613d1b88888888613fa9565b925092509250613d2b828261409d565b829350505050949350505050565b600081830382841102905092915050565b613d526142fb565b6040805101828152806020018360051b81016040528183528083602001525050919050565b8163ffffffff168160201b17846020528360021c60005260406000206003851660061b815467ffffffffffffffff8482841c188116831b82188455505050505050505050565b8360200151818360081b8560601b171781526020810185602001525050505050565b81516040810363263c69d68152602080820152815160051b60440160208282601c85016000885af1600183511416613e1657600082fd5b5050505050565b60007f8b73c3c69bb8fe3d512ecc4cf759cc79239f7b179b0ffacaa9a75d522b39400f7f00000000000000000000000000000000000000000000000000000000000000007f00000000000000000000000000000000000000000000000000000000000000004630604051602001613e98959493929190615218565b60405160208183030381529060405280519060200120905090565b600090565b606060ff60001b8314613ed557613ece83614201565b9050613f62565b818054613ee190614c80565b80601f0160208091040260200160405190810160405280929190818152602001828054613f0d90614c80565b8015613f5a5780601f10613f2f57610100808354040283529160200191613f5a565b820191906000526020600020905b815481529060010190602001808311613f3d57829003601f168201915b505050505090505b92915050565b60006040517f190100000000000000000000000000000000000000000000000000000000000081528360028201528260228201526042812091505092915050565b60008060007f7fffffffffffffffffffffffffffffff5d576e7357a4501ddfe92f46681b20a08460001c1115613fe9576000600385925092509250614093565b60006001888888886040516000815260200160405260405161400e949392919061526b565b6020604051602081039080840390855afa158015614030573d6000803e3d6000fd5b505050602060405103519050600073ffffffffffffffffffffffffffffffffffffffff168173ffffffffffffffffffffffffffffffffffffffff160361408457600060016000801b93509350935050614093565b8060008060001b935093509350505b9450945094915050565b600060038111156140b1576140b06152b0565b5b8260038111156140c4576140c36152b0565b5b03156141fd57600160038111156140de576140dd6152b0565b5b8260038111156140f1576140f06152b0565b5b03614128576040517ff645eedf00000000000000000000000000000000000000000000000000000000815260040160405180910390fd5b6002600381111561413c5761413b6152b0565b5b82600381111561414f5761414e6152b0565b5b03614194578060001c6040517ffce698f700000000000000000000000000000000000000000000000000000000815260040161418b9190614571565b60405180910390fd5b6003808111156141a7576141a66152b0565b5b8260038111156141ba576141b96152b0565b5b036141fc57806040517fd78bce0c0000000000000000000000000000000000000000000000000000000081526004016141f391906146b5565b60405180910390fd5b5b5050565b6060600061420e83614275565b90506000602067ffffffffffffffff81111561422d5761422c614cbc565b5b6040519080825280601f01601f19166020018201604052801561425f5781602001600182028036833780820191505090505b5090508181528360208201528092505050919050565b60008060ff8360001c169050601f8111156142bc576040517fb3512b0c00000000000000000000000000000000000000000000000000000000815260040160405180910390fd5b80915050919050565b6040518060c001604052806000815260200160008152602001600081526020016000815260200160008152602001600081525090565b604051806040016040528060608152602001600081525090565b600081519050919050565b600082825260208201905092915050565b60005b8381101561434f578082015181840152602081019050614334565b60008484015250505050565b6000601f19601f8301169050919050565b600061437782614315565b6143818185614320565b9350614391818560208601614331565b61439a8161435b565b840191505092915050565b600060208201905081810360008301526143bf818461436c565b905092915050565b600080fd5b600080fd5b60006effffffffffffffffffffffffffffff82169050919050565b6143f5816143d1565b811461440057600080fd5b50565b600081359050614412816143ec565b92915050565b6000806040838503121561442f5761442e6143c7565b5b600061443d85828601614403565b925050602061444e85828601614403565b9150509250929050565b600073ffffffffffffffffffffffffffffffffffffffff82169050919050565b600061448382614458565b9050919050565b61449381614478565b811461449e57600080fd5b50565b6000813590506144b08161448a565b92915050565b6000819050919050565b6144c9816144b6565b81146144d457600080fd5b50565b6000813590506144e6816144c0565b92915050565b60008060408385031215614503576145026143c7565b5b6000614511858286016144a1565b9250506020614522858286016144d7565b9150509250929050565b60008115159050919050565b6145418161452c565b82525050565b600060208201905061455c6000830184614538565b92915050565b61456b816144b6565b82525050565b60006020820190506145866000830184614562565b92915050565b6000806000606084860312156145a5576145a46143c7565b5b60006145b3868287016144a1565b93505060206145c4868287016144a1565b92505060406145d5868287016144d7565b9150509250925092565b6000602082840312156145f5576145f46143c7565b5b6000614603848285016144a1565b91505092915050565b6146158161452c565b811461462057600080fd5b50565b6000813590506146328161460c565b92915050565b60006020828403121561464e5761464d6143c7565b5b600061465c84828501614623565b91505092915050565b600060ff82169050919050565b61467b81614665565b82525050565b60006020820190506146966000830184614672565b92915050565b6000819050919050565b6146af8161469c565b82525050565b60006020820190506146ca60008301846146a6565b92915050565b6146d981614478565b82525050565b60006020820190506146f460008301846146d0565b92915050565b600080fd5b600080fd5b600080fd5b60008083601f84011261471f5761471e6146fa565b5b8235905067ffffffffffffffff81111561473c5761473b6146ff565b5b60208301915083600182028301111561475857614757614704565b5b9250929050565b60008060208385031215614776576147756143c7565b5b600083013567ffffffffffffffff811115614794576147936143cc565b5b6147a085828601614709565b92509250509250929050565b60008083601f8401126147c2576147c16146fa565b5b8235905067ffffffffffffffff8111156147df576147de6146ff565b5b6020830191508360208202830111156147fb576147fa614704565b5b9250929050565b60008060006040848603121561481b5761481a6143c7565b5b6000614829868287016144d7565b935050602084013567ffffffffffffffff81111561484a576148496143cc565b5b614856868287016147ac565b92509250509250925092565b60007fff0000000000000000000000000000000000000000000000000000000000000082169050919050565b61489781614862565b82525050565b600081519050919050565b600082825260208201905092915050565b6000819050602082019050919050565b6148d2816144b6565b82525050565b60006148e483836148c9565b60208301905092915050565b6000602082019050919050565b60006149088261489d565b61491281856148a8565b935061491d836148b9565b8060005b8381101561494e57815161493588826148d8565b9750614940836148f0565b925050600181019050614921565b5085935050505092915050565b600060e082019050614970600083018a61488e565b8181036020830152614982818961436c565b90508181036040830152614996818861436c565b90506149a56060830187614562565b6149b260808301866146d0565b6149bf60a08301856146a6565b81810360c08301526149d181846148fd565b905098975050505050505050565b6149e8816143d1565b82525050565b6000602082019050614a0360008301846149df565b92915050565b600060208284031215614a1f57614a1e6143c7565b5b6000614a2d848285016144d7565b91505092915050565b600060208284031215614a4c57614a4b6143c7565b5b6000614a5a84828501614403565b91505092915050565b614a6c8161469c565b8114614a7757600080fd5b50565b600081359050614a8981614a63565b92915050565b600060208284031215614aa557614aa46143c7565b5b6000614ab384828501614a7a565b91505092915050565b614ac581614665565b8114614ad057600080fd5b50565b600081359050614ae281614abc565b92915050565b600080600080600080600060e0888a031215614b0757614b066143c7565b5b6000614b158a828b016144a1565b9750506020614b268a828b016144a1565b9650506040614b378a828b016144d7565b9550506060614b488a828b016144d7565b9450506080614b598a828b01614ad3565b93505060a0614b6a8a828b01614a7a565b92505060c0614b7b8a828b01614a7a565b91505092959891949750929550565b60008060408385031215614ba157614ba06143c7565b5b6000614baf858286016144a1565b9250506020614bc0858286016144a1565b9150509250929050565b60006bffffffffffffffffffffffff82169050919050565b7f4e487b7100000000000000000000000000000000000000000000000000000000600052601160045260246000fd5b6000614c1c82614bca565b9150614c2783614bca565b925082820390506bffffffffffffffffffffffff811115614c4b57614c4a614be2565b5b92915050565b7f4e487b7100000000000000000000000000000000000000000000000000000000600052602260045260246000fd5b60006002820490506001821680614c9857607f821691505b602082108103614cab57614caa614c51565b5b50919050565b600082905092915050565b7f4e487b7100000000000000000000000000000000000000000000000000000000600052604160045260246000fd5b60008190508160005260206000209050919050565b60006020601f8301049050919050565b600082821b905092915050565b600060088302614d4d7fffffffffffffffffffffffffffffffffffffffffffffffffffffffffffffffff82614d10565b614d578683614d10565b95508019841693508086168417925050509392505050565b6000819050919050565b6000614d94614d8f614d8a846144b6565b614d6f565b6144b6565b9050919050565b6000819050919050565b614dae83614d79565b614dc2614dba82614d9b565b848454614d1d565b825550505050565b600090565b614dd7614dca565b614de2818484614da5565b505050565b5b81811015614e0657614dfb600082614dcf565b600181019050614de8565b5050565b601f821115614e4b57614e1c81614ceb565b614e2584614d00565b81016020851015614e34578190505b614e48614e4085614d00565b830182614de7565b50505b505050565b600082821c905092915050565b6000614e6e60001984600802614e50565b1980831691505092915050565b6000614e878383614e5d565b9150826002028217905092915050565b614ea18383614cb1565b67ffffffffffffffff811115614eba57614eb9614cbc565b5b614ec48254614c80565b614ecf828285614e0a565b6000601f831160018114614efe5760008415614eec578287013590505b614ef68582614e7b565b865550614f5e565b601f198416614f0c86614ceb565b60005b82811015614f3457848901358255600182019150602085019450602081019050614f0f565b86831015614f515784890135614f4d601f891682614e5d565b8355505b6001600288020188555050505b50505050505050565b6000614f72826144b6565b9150614f7d836144b6565b9250828202614f8b816144b6565b91508282048414831517614fa257614fa1614be2565b5b5092915050565b6000614fb4826144b6565b9150614fbf836144b6565b9250828201905080821115614fd757614fd6614be2565b5b92915050565b60008160601b9050919050565b6000614ff582614fdd565b9050919050565b600061500782614fea565b9050919050565b61501f61501a82614478565b614ffc565b82525050565b6000615031828461500e565b60148201915081905092915050565b600081905092915050565b6000815461505881614c80565b6150628186615040565b9450600182166000811461507d5760018114615092576150c5565b60ff19831686528115158202860193506150c5565b61509b85614ceb565b60005b838110156150bd5781548189015260018201915060208101905061509e565b838801955050505b50505092915050565b60006150d982614315565b6150e38185615040565b93506150f3818560208601614331565b80840191505092915050565b600061510b828561504b565b915061511782846150ce565b91508190509392505050565b600060c08201905061513860008301896146a6565b61514560208301886146d0565b61515260408301876146d0565b61515f6060830186614562565b61516c6080830185614562565b61517960a0830184614562565b979650505050505050565b600060408201905061519960008301856146d0565b6151a660208301846146d0565b9392505050565b600063ffffffff82169050919050565b60006151c8826151ad565b915063ffffffff82036151de576151dd614be2565b5b600182019050919050565b7f4e487b7100000000000000000000000000000000000000000000000000000000600052601260045260246000fd5b600060a08201905061522d60008301886146a6565b61523a60208301876146a6565b61524760408301866146a6565b6152546060830185614562565b61526160808301846146d0565b9695505050505050565b600060808201905061528060008301876146a6565b61528d6020830186614672565b61529a60408301856146a6565b6152a760608301846146a6565b95945050505050565b7f4e487b7100000000000000000000000000000000000000000000000000000000600052602160045260246000fdfea26469706673582212200464a8804b6b44f63787237ae0b4d070924e6c15c3b0b0e279858a46d45f448364736f6c6343000814003360806040523480156200001157600080fd5b50604051620014c8380380620014c883398181016040528101906200003791906200010b565b80620000486200009060201b60201c565b60010160006101000a81548173ffffffffffffffffffffffffffffffffffffffff021916908373ffffffffffffffffffffffffffffffffffffffff160217905550506200013d565b6000683602298b8c10b01230905090565b600080fd5b600073ffffffffffffffffffffffffffffffffffffffff82169050919050565b6000620000d382620000a6565b9050919050565b620000e581620000c6565b8114620000f157600080fd5b50565b6000815190506200010581620000da565b92915050565b600060208284031215620001245762000123620000a1565b5b60006200013484828501620000f4565b91505092915050565b61137b806200014d6000396000f3fe60806040526004361061010d5760003560e01c80636cef16e61161009557806397e5311c1161006457806397e5311c1461067c578063a22cb465146106a7578063b88d4fde146106d0578063c87b56dd146106f9578063e985e9c51461073657610114565b80636cef16e6146105d257806370a08231146105e95780638da5cb5b1461062657806395d89b411461065157610114565b806318160ddd116100dc57806318160ddd146104e857806323b872dd14610513578063243598791461053c57806342842e0e146105795780636352211e1461059557610114565b806301ffc9a71461041a57806306fdde0314610457578063081812fc14610482578063095ea7b3146104bf57610114565b3661011457005b600061011e610773565b9050600060e061012e6000610784565b901c905063263c69d6810361024a578160000160009054906101000a900473ffffffffffffffffffffffffffffffffffffffff1673ffffffffffffffffffffffffffffffffffffffff163373ffffffffffffffffffffffffffffffffffffffff16146101c6576040517f363cb31200000000000000000000000000000000000000000000000000000000815260040160405180910390fd5b602036103d60003e6004356024018036103d60003e602081033560051b81018036103d60003e5b80821461023f5781358060601c816001168260a01b60a81c811583028284027fddf252ad1be2c89b69c2b068fc378daa952ba7f163c4a11628f55a4df523b3ef600038a45050508160200191506101ed565b600160005260206000f35b630f4599e5810361041857600073ffffffffffffffffffffffffffffffffffffffff168260010160009054906101000a900473ffffffffffffffffffffffffffffffffffffffff1673ffffffffffffffffffffffffffffffffffffffff1614610340578160010160009054906101000a900473ffffffffffffffffffffffffffffffffffffffff1673ffffffffffffffffffffffffffffffffffffffff166102f26004610784565b73ffffffffffffffffffffffffffffffffffffffff161461033f576040517fc59ec47a00000000000000000000000000000000000000000000000000000000815260040160405180910390fd5b5b600073ffffffffffffffffffffffffffffffffffffffff168260000160009054906101000a900473ffffffffffffffffffffffffffffffffffffffff1673ffffffffffffffffffffffffffffffffffffffff16146103ca576040517fbf656a4600000000000000000000000000000000000000000000000000000000815260040160405180910390fd5b338260000160006101000a81548173ffffffffffffffffffffffffffffffffffffffff021916908373ffffffffffffffffffffffffffffffffffffffff160217905550600160005260206000f35b005b34801561042657600080fd5b50610441600480360381019061043c9190610ec2565b61078f565b60405161044e9190610f0a565b60405180910390f35b34801561046357600080fd5b5061046c6107b4565b6040516104799190610fb5565b60405180910390f35b34801561048e57600080fd5b506104a960048036038101906104a4919061100d565b6107ca565b6040516104b6919061107b565b60405180910390f35b3480156104cb57600080fd5b506104e660048036038101906104e191906110c2565b6107e3565b005b3480156104f457600080fd5b506104fd610869565b60405161050a9190611111565b60405180910390f35b34801561051f57600080fd5b5061053a6004803603810190610535919061112c565b610880565b005b34801561054857600080fd5b50610563600480360381019061055e919061100d565b61090f565b604051610570919061107b565b60405180910390f35b610593600480360381019061058e919061112c565b610928565b005b3480156105a157600080fd5b506105bc60048036038101906105b7919061100d565b610962565b6040516105c9919061107b565b60405180910390f35b3480156105de57600080fd5b506105e761097b565b005b3480156105f557600080fd5b50610610600480360381019061060b919061117f565b610aba565b60405161061d9190611111565b60405180910390f35b34801561063257600080fd5b5061063b610ae9565b604051610648919061107b565b60405180910390f35b34801561065d57600080fd5b50610666610b1c565b6040516106739190610fb5565b60405180910390f35b34801561068857600080fd5b50610691610b32565b60405161069e919061107b565b60405180910390f35b3480156106b357600080fd5b506106ce60048036038101906106c991906111d8565b610bcb565b005b3480156106dc57600080fd5b506106f760048036038101906106f2919061127d565b610c50565b005b34801561070557600080fd5b50610720600480360381019061071b919061100d565b610cc1565b60405161072d9190610fb5565b60405180910390f35b34801561074257600080fd5b5061075d60048036038101906107589190611305565b610cd8565b60405161076a9190610f0a565b60405180910390f35b6000683602298b8c10b01230905090565b600081359050919050565b60008160e01c635b5e139f81146380ac58cd82146301ffc9a783141717915050919050565b60606107c56306fdde036000610d20565b905090565b60006107dc63081812fc836000610d7d565b9050919050565b60006107ed610b32565b90508260601b60601c925060405163d10b6e0c600052836020528260405233606052602060006064601c34865af1601f3d111661082d573d6000823e3d81fd5b8060405260006060528284600c5160601c7f8c5be1e5ebec7d5bd14f71427d1e84f3dd0314c0f7b2291e5b200ac8c7c3b925600038a450505050565b600061087b63e2c79281600080610d7d565b905090565b600061088a610b32565b90508360601b60601c93508260601b60601c925060405163e5eb36c881528460208201528360408201528260608201523360808201526020816084601c840134865af16001825114166108e0573d6000823e3d81fd5b8284867fddf252ad1be2c89b69c2b068fc378daa952ba7f163c4a11628f55a4df523b3ef600038a45050505050565b60006109216324359879836000610d7d565b9050919050565b610933838383610880565b61093c82610dc8565b1561095d5761095c83838360405180602001604052806000815250610dd3565b5b505050565b6000610974636352211e836000610d7d565b9050919050565b600080610986610b32565b9050638da5cb5b600052602060006004601c845afa601f3d1116156109ae57600c5160601c91505b60006109b8610773565b905060008160020160009054906101000a900473ffffffffffffffffffffffffffffffffffffffff1690508373ffffffffffffffffffffffffffffffffffffffff168173ffffffffffffffffffffffffffffffffffffffff1614610ab457838260020160006101000a81548173ffffffffffffffffffffffffffffffffffffffff021916908373ffffffffffffffffffffffffffffffffffffffff1602179055508373ffffffffffffffffffffffffffffffffffffffff168173ffffffffffffffffffffffffffffffffffffffff167f8be0079c531659141344cd1fd0a4f28419497f9722a3daafe3b4186f6b6457e060405160405180910390a35b50505050565b6000610ae263f5b100ea8373ffffffffffffffffffffffffffffffffffffffff166000610d7d565b9050919050565b6000610af3610773565b60020160009054906101000a900473ffffffffffffffffffffffffffffffffffffffff16905090565b6060610b2d6395d89b416000610d20565b905090565b6000610b3c610773565b60000160009054906101000a900473ffffffffffffffffffffffffffffffffffffffff169050600073ffffffffffffffffffffffffffffffffffffffff168173ffffffffffffffffffffffffffffffffffffffff1603610bc8576040517f5b2a47ae00000000000000000000000000000000000000000000000000000000815260040160405180910390fd5b90565b6000610bd5610b32565b90508260601b60601c925060405163813500fc6000528360205282151560405233606052602060006064601c34865af160016000511416610c19573d6000823e3d81fd5b83337f17307eab39ab6107e8899845ad3d59bd9653f200f220920489ca2b5937696c3160206040a380604052600060605250505050565b610c5b858585610880565b610c6484610dc8565b15610cba57610cb985858585858080601f016020809104026020016040519081016040528093929190818152602001838380828437600081840152601f19601f82011690508083019250505050505050610dd3565b5b5050505050565b6060610cd163c87b56dd83610d20565b9050919050565b600080610d1663e985e9c58573ffffffffffffffffffffffffffffffffffffffff168573ffffffffffffffffffffffffffffffffffffffff16610d7d565b1415905092915050565b60606000610d2c610b32565b9050604051915083600052826020526000806024601c845afa610d52573d6000833e3d82fd5b60206000803e6020600051833e8151602060005101602084013e815160208301016040525092915050565b600080610d88610b32565b9050604051856000528460205283604052602060006044601c855afa601f3d1116610db6573d6000823e3d81fd5b80604052600051925050509392505050565b6000813b9050919050565b60405163150b7a028082523360208301528560601b60601c604083015283606083015260808083015282518060a08401528015610e1a578060c08401826020870160045afa505b60208360a48301601c860160008a5af1610e3e573d15610e3d573d6000843e3d83fd5b5b8160e01b835114610e575763d1a57ed66000526004601cfd5b50505050505050565b600080fd5b600080fd5b60007fffffffff0000000000000000000000000000000000000000000000000000000082169050919050565b610e9f81610e6a565b8114610eaa57600080fd5b50565b600081359050610ebc81610e96565b92915050565b600060208284031215610ed857610ed7610e60565b5b6000610ee684828501610ead565b91505092915050565b60008115159050919050565b610f0481610eef565b82525050565b6000602082019050610f1f6000830184610efb565b92915050565b600081519050919050565b600082825260208201905092915050565b60005b83811015610f5f578082015181840152602081019050610f44565b60008484015250505050565b6000601f19601f8301169050919050565b6000610f8782610f25565b610f918185610f30565b9350610fa1818560208601610f41565b610faa81610f6b565b840191505092915050565b60006020820190508181036000830152610fcf8184610f7c565b905092915050565b6000819050919050565b610fea81610fd7565b8114610ff557600080fd5b50565b60008135905061100781610fe1565b92915050565b60006020828403121561102357611022610e60565b5b600061103184828501610ff8565b91505092915050565b600073ffffffffffffffffffffffffffffffffffffffff82169050919050565b60006110658261103a565b9050919050565b6110758161105a565b82525050565b6000602082019050611090600083018461106c565b92915050565b61109f8161105a565b81146110aa57600080fd5b50565b6000813590506110bc81611096565b92915050565b600080604083850312156110d9576110d8610e60565b5b60006110e7858286016110ad565b92505060206110f885828601610ff8565b9150509250929050565b61110b81610fd7565b82525050565b60006020820190506111266000830184611102565b92915050565b60008060006060848603121561114557611144610e60565b5b6000611153868287016110ad565b9350506020611164868287016110ad565b925050604061117586828701610ff8565b9150509250925092565b60006020828403121561119557611194610e60565b5b60006111a3848285016110ad565b91505092915050565b6111b581610eef565b81146111c057600080fd5b50565b6000813590506111d2816111ac565b92915050565b600080604083850312156111ef576111ee610e60565b5b60006111fd858286016110ad565b925050602061120e858286016111c3565b9150509250929050565b600080fd5b600080fd5b600080fd5b60008083601f84011261123d5761123c611218565b5b8235905067ffffffffffffffff81111561125a5761125961121d565b5b60208301915083600182028301111561127657611275611222565b5b9250929050565b60008060008060006080868803121561129957611298610e60565b5b60006112a7888289016110ad565b95505060206112b8888289016110ad565b94505060406112c988828901610ff8565b935050606086013567ffffffffffffffff8111156112ea576112e9610e65565b5b6112f688828901611227565b92509250509295509295909350565b6000806040838503121561131c5761131b610e60565b5b600061132a858286016110ad565b925050602061133b858286016110ad565b915050925092905056fea26469706673582212202866c361874f8d4f7d11abb7958102afc5b3eba8f5bca415765537c358787d5264736f6c63430008140033",
  "linkReferences": {},
  "deployedLinkReferences": {}
}