{
  "_format": "hh-sol-artifact-1",
  "contractName": "NFTMarketplace",
  "sourceName": "contracts/NFTMarketplace.sol",
  "abi": [
    {
      "inputs": [],
      "name": "NotApproved",
      "type": "error"
    },
    {
      "anonymous": false,
      "inputs": [
        {
          "indexed": true,
          "internalType": "address",
          "name": "buyer",
          "type": "address"
        },
        {
          "indexed": true,
          "internalType": "address",
          "name": "nftAddress",
          "type": "address"
        },
        {
          "indexed": false,
          "internalType": "uint256",
          "name": "price",
          "type": "uint256"
        },
        {
          "indexed": false,
          "internalType": "uint256",
          "name": "fraction",
          "type": "uint256"
        }
      ],
      "name": "LogItemBought",
      "type": "event"
    },
    {
      "anonymous": false,
      "inputs": [
        {
          "indexed": true,
          "internalType": "address",
          "name": "seller",
          "type": "address"
        },
        {
          "indexed": true,
          "internalType": "address",
          "name": "nftAddress",
          "type": "address"
        }
      ],
      "name": "LogItemCanceled",
      "type": "event"
    },
    {
      "anonymous": false,
      "inputs": [
        {
          "indexed": true,
          "internalType": "address",
          "name": "seller",
          "type": "address"
        },
        {
          "indexed": true,
          "internalType": "address",
          "name": "nftAddress",
          "type": "address"
        },
        {
          "indexed": false,
          "internalType": "uint256",
          "name": "price",
          "type": "uint256"
        }
      ],
      "name": "LogItemListed",
      "type": "event"
    },
    {
      "inputs": [
        {
          "internalType": "address",
          "name": "nftAddress",
          "type": "address"
        },
        {
          "internalType": "uint256",
          "name": "fraction",
          "type": "uint256"
        }
      ],
      "name": "buyItem",
      "outputs": [],
      "stateMutability": "payable",
      "type": "function"
    },
    {
      "inputs": [
        {
          "internalType": "address",
          "name": "nftAddress",
          "type": "address"
        }
      ],
      "name": "cancelListing",
      "outputs": [],
      "stateMutability": "nonpayable",
      "type": "function"
    },
    {
      "inputs": [
        {
          "internalType": "address",
          "name": "nftAddress",
          "type": "address"
        }
      ],
      "name": "getListing",
      "outputs": [
        {
          "components": [
            {
              "internalType": "uint256",
              "name": "price",
              "type": "uint256"
            },
            {
              "internalType": "address",
              "name": "seller",
              "type": "address"
            }
          ],
          "internalType": "struct NFTMarketplace.Listing",
          "name": "",
          "type": "tuple"
        }
      ],
      "stateMutability": "view",
      "type": "function"
    },
    {
      "inputs": [
        {
          "internalType": "address",
          "name": "seller",
          "type": "address"
        }
      ],
      "name": "getProceeds",
      "outputs": [
        {
          "internalType": "uint256",
          "name": "",
          "type": "uint256"
        }
      ],
      "stateMutability": "view",
      "type": "function"
    },
    {
      "inputs": [
        {
          "internalType": "address",
          "name": "nftAddress",
          "type": "address"
        },
        {
          "internalType": "uint256",
          "name": "amount",
          "type": "uint256"
        },
        {
          "internalType": "uint256",
          "name": "price",
          "type": "uint256"
        },
        {
          "internalType": "uint256",
          "name": "deadline",
          "type": "uint256"
        },
        {
          "internalType": "uint8",
          "name": "v",
          "type": "uint8"
        },
        {
          "internalType": "bytes32",
          "name": "r",
          "type": "bytes32"
        },
        {
          "internalType": "bytes32",
          "name": "s",
          "type": "bytes32"
        }
      ],
      "name": "listItemWithPermit",
      "outputs": [],
      "stateMutability": "nonpayable",
      "type": "function"
    },
    {
      "inputs": [],
      "name": "numListings",
      "outputs": [
        {
          "internalType": "uint256",
          "name": "",
          "type": "uint256"
        }
      ],
      "stateMutability": "view",
      "type": "function"
    },
    {
      "inputs": [],
      "name": "withdrawProceeds",
      "outputs": [],
      "stateMutability": "nonpayable",
      "type": "function"
    }
  ],
  "bytecode": "0x608060405234801561001057600080fd5b506116a1806100206000396000f3fe6080604052600436106100705760003560e01c80637fc41de11161004e5780637fc41de1146101185780639038e6931461014157806390af04c1146101585780639f37092a1461018357610070565b8063084af0b21461007557806330cfeda9146100b25780634724da6f146100ef575b600080fd5b34801561008157600080fd5b5061009c60048036038101906100979190610eb4565b61019f565b6040516100a99190610f38565b60405180910390f35b3480156100be57600080fd5b506100d960048036038101906100d49190610eb4565b610258565b6040516100e69190610f62565b60405180910390f35b3480156100fb57600080fd5b5061011660048036038101906101119190610eb4565b6102a1565b005b34801561012457600080fd5b5061013f600480360381019061013a9190611018565b61053b565b005b34801561014d57600080fd5b506101566108c4565b005b34801561016457600080fd5b5061016d610a55565b60405161017a9190610f62565b60405180910390f35b61019d600480360381019061019891906110ba565b610a5e565b005b6101a7610e21565b600160008373ffffffffffffffffffffffffffffffffffffffff1673ffffffffffffffffffffffffffffffffffffffff168152602001908152602001600020604051806040016040529081600082015481526020016001820160009054906101000a900473ffffffffffffffffffffffffffffffffffffffff1673ffffffffffffffffffffffffffffffffffffffff1673ffffffffffffffffffffffffffffffffffffffff16815250509050919050565b6000600260008373ffffffffffffffffffffffffffffffffffffffff1673ffffffffffffffffffffffffffffffffffffffff168152602001908152602001600020549050919050565b806102aa610e19565b600082905060008173ffffffffffffffffffffffffffffffffffffffff166370a08231846040518263ffffffff1660e01b81526004016102ea9190611109565b602060405180830381865afa158015610307573d6000803e3d6000fd5b505050506040513d601f19601f8201168201806040525081019061032b9190611139565b1161036b576040517f08c379a0000000000000000000000000000000000000000000000000000000008152600401610362906111c3565b60405180910390fd5b836000600160008373ffffffffffffffffffffffffffffffffffffffff1673ffffffffffffffffffffffffffffffffffffffff168152602001908152602001600020604051806040016040529081600082015481526020016001820160009054906101000a900473ffffffffffffffffffffffffffffffffffffffff1673ffffffffffffffffffffffffffffffffffffffff1673ffffffffffffffffffffffffffffffffffffffff168152505090506000816000015111610461576040517f08c379a00000000000000000000000000000000000000000000000000000000081526004016104589061122f565b60405180910390fd5b600160008773ffffffffffffffffffffffffffffffffffffffff1673ffffffffffffffffffffffffffffffffffffffff1681526020019081526020016000206000808201600090556001820160006101000a81549073ffffffffffffffffffffffffffffffffffffffff021916905550508573ffffffffffffffffffffffffffffffffffffffff166104f1610e19565b73ffffffffffffffffffffffffffffffffffffffff167fc9669b8a48512518c3136892d2cd2ed45b7b7aa8190bfc0a3750292f3583906560405160405180910390a3505050505050565b866000600160008373ffffffffffffffffffffffffffffffffffffffff1673ffffffffffffffffffffffffffffffffffffffff168152602001908152602001600020604051806040016040529081600082015481526020016001820160009054906101000a900473ffffffffffffffffffffffffffffffffffffffff1673ffffffffffffffffffffffffffffffffffffffff1673ffffffffffffffffffffffffffffffffffffffff168152505090506000816000015114610631576040517f08c379a00000000000000000000000000000000000000000000000000000000081526004016106289061129b565b60405180910390fd5b60008990508073ffffffffffffffffffffffffffffffffffffffff1663d505accf61065a610e19565b308c8b8b8b8b6040518863ffffffff1660e01b815260040161068297969594939291906112d9565b600060405180830381600087803b15801561069c57600080fd5b505af11580156106b0573d6000803e3d6000fd5b50505050888173ffffffffffffffffffffffffffffffffffffffff1663dd62ed3e6106d9610e19565b306040518363ffffffff1660e01b81526004016106f7929190611348565b602060405180830381865afa158015610714573d6000803e3d6000fd5b505050506040513d601f19601f820116820180604052508101906107389190611139565b1015610770576040517fc19f17a900000000000000000000000000000000000000000000000000000000815260040160405180910390fd5b6040518060400160405280898152602001610789610e19565b73ffffffffffffffffffffffffffffffffffffffff16815250600160008c73ffffffffffffffffffffffffffffffffffffffff1673ffffffffffffffffffffffffffffffffffffffff1681526020019081526020016000206000820151816000015560208201518160010160006101000a81548173ffffffffffffffffffffffffffffffffffffffff021916908373ffffffffffffffffffffffffffffffffffffffff1602179055509050508973ffffffffffffffffffffffffffffffffffffffff16610854610e19565b73ffffffffffffffffffffffffffffffffffffffff167ff3f0bb188e969a2f3f035c0aa4309dc7801440971970e4e18f11afb37a72d0168a6040516108999190610f62565b60405180910390a36000808154809291906108b3906113a0565b919050555050505050505050505050565b6000600260006108d2610e19565b73ffffffffffffffffffffffffffffffffffffffff1673ffffffffffffffffffffffffffffffffffffffff16815260200190815260200160002054905060008111610952576040517f08c379a000000000000000000000000000000000000000000000000000000000815260040161094990611434565b60405180910390fd5b600060026000610960610e19565b73ffffffffffffffffffffffffffffffffffffffff1673ffffffffffffffffffffffffffffffffffffffff1681526020019081526020016000208190555060006109a8610e19565b73ffffffffffffffffffffffffffffffffffffffff16826040516109cb90611485565b60006040518083038185875af1925050503d8060008114610a08576040519150601f19603f3d011682016040523d82523d6000602084013e610a0d565b606091505b5050905080610a51576040517f08c379a0000000000000000000000000000000000000000000000000000000008152600401610a48906114e6565b60405180910390fd5b5050565b60008054905090565b816000600160008373ffffffffffffffffffffffffffffffffffffffff1673ffffffffffffffffffffffffffffffffffffffff168152602001908152602001600020604051806040016040529081600082015481526020016001820160009054906101000a900473ffffffffffffffffffffffffffffffffffffffff1673ffffffffffffffffffffffffffffffffffffffff1673ffffffffffffffffffffffffffffffffffffffff168152505090506000816000015111610b54576040517f08c379a0000000000000000000000000000000000000000000000000000000008152600401610b4b9061122f565b60405180910390fd5b6000600160008673ffffffffffffffffffffffffffffffffffffffff1673ffffffffffffffffffffffffffffffffffffffff168152602001908152602001600020604051806040016040529081600082015481526020016001820160009054906101000a900473ffffffffffffffffffffffffffffffffffffffff1673ffffffffffffffffffffffffffffffffffffffff1673ffffffffffffffffffffffffffffffffffffffff168152505090508060000151341015610c49576040517f08c379a0000000000000000000000000000000000000000000000000000000008152600401610c4090611552565b60405180910390fd5b3460026000836020015173ffffffffffffffffffffffffffffffffffffffff1673ffffffffffffffffffffffffffffffffffffffff1681526020019081526020016000206000828254610c9c9190611572565b92505081905550600160008673ffffffffffffffffffffffffffffffffffffffff1673ffffffffffffffffffffffffffffffffffffffff1681526020019081526020016000206000808201600090556001820160006101000a81549073ffffffffffffffffffffffffffffffffffffffff021916905550508473ffffffffffffffffffffffffffffffffffffffff166323b872dd8260200151610d3d610e19565b876040518463ffffffff1660e01b8152600401610d5c939291906115a6565b6020604051808303816000875af1158015610d7b573d6000803e3d6000fd5b505050506040513d601f19601f82011682018060405250810190610d9f9190611615565b508473ffffffffffffffffffffffffffffffffffffffff16610dbf610e19565b73ffffffffffffffffffffffffffffffffffffffff167f4e4294ab7366efb224569d5817c1b3959188f54db37c216798e96643ca3d034f836000015187604051610e0a929190611642565b60405180910390a35050505050565b600033905090565b604051806040016040528060008152602001600073ffffffffffffffffffffffffffffffffffffffff1681525090565b600080fd5b600073ffffffffffffffffffffffffffffffffffffffff82169050919050565b6000610e8182610e56565b9050919050565b610e9181610e76565b8114610e9c57600080fd5b50565b600081359050610eae81610e88565b92915050565b600060208284031215610eca57610ec9610e51565b5b6000610ed884828501610e9f565b91505092915050565b6000819050919050565b610ef481610ee1565b82525050565b610f0381610e76565b82525050565b604082016000820151610f1f6000850182610eeb565b506020820151610f326020850182610efa565b50505050565b6000604082019050610f4d6000830184610f09565b92915050565b610f5c81610ee1565b82525050565b6000602082019050610f776000830184610f53565b92915050565b610f8681610ee1565b8114610f9157600080fd5b50565b600081359050610fa381610f7d565b92915050565b600060ff82169050919050565b610fbf81610fa9565b8114610fca57600080fd5b50565b600081359050610fdc81610fb6565b92915050565b6000819050919050565b610ff581610fe2565b811461100057600080fd5b50565b60008135905061101281610fec565b92915050565b600080600080600080600060e0888a03121561103757611036610e51565b5b60006110458a828b01610e9f565b97505060206110568a828b01610f94565b96505060406110678a828b01610f94565b95505060606110788a828b01610f94565b94505060806110898a828b01610fcd565b93505060a061109a8a828b01611003565b92505060c06110ab8a828b01611003565b91505092959891949750929550565b600080604083850312156110d1576110d0610e51565b5b60006110df85828601610e9f565b92505060206110f085828601610f94565b9150509250929050565b61110381610e76565b82525050565b600060208201905061111e60008301846110fa565b92915050565b60008151905061113381610f7d565b92915050565b60006020828403121561114f5761114e610e51565b5b600061115d84828501611124565b91505092915050565b600082825260208201905092915050565b7f4e6f74206f776e65720000000000000000000000000000000000000000000000600082015250565b60006111ad600983611166565b91506111b882611177565b602082019050919050565b600060208201905081810360008301526111dc816111a0565b9050919050565b7f4e6f74206c697374656400000000000000000000000000000000000000000000600082015250565b6000611219600a83611166565b9150611224826111e3565b602082019050919050565b600060208201905081810360008301526112488161120c565b9050919050565b7f416c7265616479206c6973746564000000000000000000000000000000000000600082015250565b6000611285600e83611166565b91506112908261124f565b602082019050919050565b600060208201905081810360008301526112b481611278565b9050919050565b6112c481610fa9565b82525050565b6112d381610fe2565b82525050565b600060e0820190506112ee600083018a6110fa565b6112fb60208301896110fa565b6113086040830188610f53565b6113156060830187610f53565b61132260808301866112bb565b61132f60a08301856112ca565b61133c60c08301846112ca565b98975050505050505050565b600060408201905061135d60008301856110fa565b61136a60208301846110fa565b9392505050565b7f4e487b7100000000000000000000000000000000000000000000000000000000600052601160045260246000fd5b60006113ab82610ee1565b91507fffffffffffffffffffffffffffffffffffffffffffffffffffffffffffffffff82036113dd576113dc611371565b5b600182019050919050565b7f4e6f2070726f6365656473000000000000000000000000000000000000000000600082015250565b600061141e600b83611166565b9150611429826113e8565b602082019050919050565b6000602082019050818103600083015261144d81611411565b9050919050565b600081905092915050565b50565b600061146f600083611454565b915061147a8261145f565b600082019050919050565b600061149082611462565b9150819050919050565b7f5472616e73666572206661696c65640000000000000000000000000000000000600082015250565b60006114d0600f83611166565b91506114db8261149a565b602082019050919050565b600060208201905081810360008301526114ff816114c3565b9050919050565b7f5072696365206e6f74206d657400000000000000000000000000000000000000600082015250565b600061153c600d83611166565b915061154782611506565b602082019050919050565b6000602082019050818103600083015261156b8161152f565b9050919050565b600061157d82610ee1565b915061158883610ee1565b92508282019050808211156115a05761159f611371565b5b92915050565b60006060820190506115bb60008301866110fa565b6115c860208301856110fa565b6115d56040830184610f53565b949350505050565b60008115159050919050565b6115f2816115dd565b81146115fd57600080fd5b50565b60008151905061160f816115e9565b92915050565b60006020828403121561162b5761162a610e51565b5b600061163984828501611600565b91505092915050565b60006040820190506116576000830185610f53565b6116646020830184610f53565b939250505056fea2646970667358221220dcb6ada8684792680da8c2a6e9479a956d348195eea10214457b2606fed2c88b64736f6c63430008140033",
  "linkReferences": {},
  "deployedLinkReferences": {}
}